{
  "data": {
    "bytecode": {
      "linkReferences": {},
      "object": "6101206040523480156200001257600080fd5b5060405162002c7d38038062002c7d8339818101604052810190620000389190620003af565b858073ffffffffffffffffffffffffffffffffffffffff1660808173ffffffffffffffffffffffffffffffffffffffff1681525050506200008e620000826200017d60201b60201c565b6200018560201b60201c565b836001819055508573ffffffffffffffffffffffffffffffffffffffff1660a08173ffffffffffffffffffffffffffffffffffffffff16815250508260c081815250508167ffffffffffffffff1660e08167ffffffffffffffff16815250508063ffffffff166101008163ffffffff16815250506001600860006101000a81548160ff021916908360028111156200012b576200012a6200044b565b5b021790555084600a60006101000a81548173ffffffffffffffffffffffffffffffffffffffff021916908373ffffffffffffffffffffffffffffffffffffffff1602179055505050505050506200047a565b600033905090565b60008060009054906101000a900473ffffffffffffffffffffffffffffffffffffffff169050816000806101000a81548173ffffffffffffffffffffffffffffffffffffffff021916908373ffffffffffffffffffffffffffffffffffffffff1602179055508173ffffffffffffffffffffffffffffffffffffffff168173ffffffffffffffffffffffffffffffffffffffff167f8be0079c531659141344cd1fd0a4f28419497f9722a3daafe3b4186f6b6457e060405160405180910390a35050565b600080fd5b600073ffffffffffffffffffffffffffffffffffffffff82169050919050565b60006200027b826200024e565b9050919050565b6200028d816200026e565b81146200029957600080fd5b50565b600081519050620002ad8162000282565b92915050565b6000819050919050565b620002c881620002b3565b8114620002d457600080fd5b50565b600081519050620002e881620002bd565b92915050565b6000819050919050565b6200030381620002ee565b81146200030f57600080fd5b50565b6000815190506200032381620002f8565b92915050565b600067ffffffffffffffff82169050919050565b620003488162000329565b81146200035457600080fd5b50565b60008151905062000368816200033d565b92915050565b600063ffffffff82169050919050565b62000389816200036e565b81146200039557600080fd5b50565b600081519050620003a9816200037e565b92915050565b60008060008060008060c08789031215620003cf57620003ce62000249565b5b6000620003df89828a016200029c565b9650506020620003f289828a016200029c565b95505060406200040589828a01620002d7565b94505060606200041889828a0162000312565b93505060806200042b89828a0162000357565b92505060a06200043e89828a0162000398565b9150509295509295509295565b7f4e487b7100000000000000000000000000000000000000000000000000000000600052602160045260246000fd5b60805160a05160c05160e0516101005161279b620004e2600039600081816105f10152610c3c0152600081816105ce0152610c190152600081816105ad0152610bf80152600081816105710152610bbc0152600081816103db015261042f015261279b6000f3fe6080604052600436106100fe5760003560e01c8063715018a611610095578063cd38aa8711610064578063cd38aa87146102c9578063d537b482146102e0578063dd11247e14610309578063dfd39a8214610334578063f2fde38b1461035f576100fe565b8063715018a6146102665780638678a7b21461027d5780638da5cb5b14610294578063c1af5785146102bf576100fe565b80634585e33b116100d15780634585e33b146101bd5780636b68c03c146101e65780636e04ff0d146102115780636fd098161461024f576100fe565b80630484a22f1461010357806312065fe0146101405780631fe543e31461016b5780632c1e816d14610194575b600080fd5b34801561010f57600080fd5b5061012a60048036038101906101259190611ba2565b610388565b6040516101379190611be8565b60405180910390f35b34801561014c57600080fd5b506101556103d1565b6040516101629190611be8565b60405180910390f35b34801561017757600080fd5b50610192600480360381019061018d9190611d88565b6103d9565b005b3480156101a057600080fd5b506101bb60048036038101906101b69190611ba2565b610499565b005b3480156101c957600080fd5b506101e460048036038101906101df9190611e99565b6104e5565b005b3480156101f257600080fd5b506101fb6106a9565b60405161020891906120ed565b60405180910390f35b34801561021d57600080fd5b5061023860048036038101906102339190611e99565b61099e565b60405161024692919061217f565b60405180910390f35b34801561025b57600080fd5b50610264610adb565b005b34801561027257600080fd5b5061027b610b9c565b005b34801561028957600080fd5b50610292610bb0565b005b3480156102a057600080fd5b506102a9610cf2565b6040516102b691906121be565b60405180910390f35b6102c7610d1b565b005b3480156102d557600080fd5b506102de610fae565b005b3480156102ec57600080fd5b50610307600480360381019061030291906121d9565b611231565b005b34801561031557600080fd5b5061031e611336565b60405161032b9190611be8565b60405180910390f35b34801561034057600080fd5b5061034961133c565b6040516103569190611be8565b60405180910390f35b34801561036b57600080fd5b5061038660048036038101906103819190611ba2565b611342565b005b6000600560008373ffffffffffffffffffffffffffffffffffffffff1673ffffffffffffffffffffffffffffffffffffffff168152602001908152602001600020549050919050565b600047905090565b7f000000000000000000000000000000000000000000000000000000000000000073ffffffffffffffffffffffffffffffffffffffff163373ffffffffffffffffffffffffffffffffffffffff161461048b57337f00000000000000000000000000000000000000000000000000000000000000006040517f1cf993f4000000000000000000000000000000000000000000000000000000008152600401610482929190612240565b60405180910390fd5b61049582826113c5565b5050565b6104a161161b565b80600a60006101000a81548173ffffffffffffffffffffffffffffffffffffffff021916908373ffffffffffffffffffffffffffffffffffffffff16021790555050565b60006104ff6040518060200160405280600081525061099e565b50905080610542576040517f08c379a0000000000000000000000000000000000000000000000000000000008152600401610539906122c6565b60405180910390fd5b6002600860006101000a81548160ff02191690836002811115610568576105676122e6565b5b021790555060007f000000000000000000000000000000000000000000000000000000000000000073ffffffffffffffffffffffffffffffffffffffff16635d3b1d307f00000000000000000000000000000000000000000000000000000000000000007f000000000000000000000000000000000000000000000000000000000000000060037f000000000000000000000000000000000000000000000000000000000000000060016040518663ffffffff1660e01b815260040161063295949392919061238d565b6020604051808303816000875af1158015610651573d6000803e3d6000fd5b505050506040513d601f19601f8201168201806040525081019061067591906123f5565b9050807fff4d9122b4213ff3ee8322521d6bc1397ad727d4563e02f00b3346cf834fe07560405160405180910390a2505050565b6106b1611999565b6060600060028111156106c7576106c66122e6565b5b600860009054906101000a900460ff1660028111156106e9576106e86122e6565b5b0361072b576040518060400160405280600481526020017f4f70656e0000000000000000000000000000000000000000000000000000000081525090506107dd565b6001600281111561073f5761073e6122e6565b5b600860009054906101000a900460ff166002811115610761576107606122e6565b5b036107a3576040518060400160405280600681526020017f436c6f736564000000000000000000000000000000000000000000000000000081525090506107dc565b6040518060400160405280600f81526020017f43686f6f73696e672077696e6e6572000000000000000000000000000000000081525090505b5b600060068054905067ffffffffffffffff8111156107fe576107fd611c45565b5b60405190808252806020026020018201604052801561083757816020015b6108246119cf565b81526020019060019003908161081c5790505b50905060005b6006805490508110156109615760405180604001604052806006838154811061086957610868612422565b5b9060005260206000200160009054906101000a900473ffffffffffffffffffffffffffffffffffffffff1673ffffffffffffffffffffffffffffffffffffffff16815260200160056000600685815481106108c7576108c6612422565b5b9060005260206000200160009054906101000a900473ffffffffffffffffffffffffffffffffffffffff1673ffffffffffffffffffffffffffffffffffffffff1673ffffffffffffffffffffffffffffffffffffffff1681526020019081526020016000205481525082828151811061094357610942612422565b5b6020026020010181905250808061095990612480565b91505061083d565b506040518060c001604052806001548152602001600254815260200160035481526020018281526020016007548152602001838152509250505090565b6000606060008060028111156109b7576109b66122e6565b5b600860009054906101000a900460ff1660028111156109d9576109d86122e6565b5b1480156109f4575060075461012c426109f291906124c8565b115b90508015610a54576002600860006101000a81548160ff02191690836002811115610a2257610a216122e6565b5b02179055507fcc6032347cc2be37f56c46ff482afcf501eb1d147838857e117fe49234b1f12e60405160405180910390a15b7f1f0c74a6ed90b1a7bf068275bbcd025d930b08a7be83baae85787f9a5ac624c742600754604051610a879291906124fc565b60405180910390a1600280811115610aa257610aa16122e6565b5b600860009054906101000a900460ff166002811115610ac457610ac36122e6565b5b148015610ad357506007544210155b925050915091565b610ae361161b565b6001600860006101000a81548160ff02191690836002811115610b0957610b086122e6565b5b0217905550600067ffffffffffffffff811115610b2957610b28611c45565b5b604051908082528060200260200182016040528015610b575781602001602082028036833780820191505090505b5060049080519060200190610b6d9291906119ff565b507ffc2b180437972a94a98d643b705025c6263c595cce057cc3d910384b8d1d210c60405160405180910390a1565b610ba461161b565b610bae6000611699565b565b610bb861161b565b60007f000000000000000000000000000000000000000000000000000000000000000073ffffffffffffffffffffffffffffffffffffffff16635d3b1d307f00000000000000000000000000000000000000000000000000000000000000007f000000000000000000000000000000000000000000000000000000000000000060037f000000000000000000000000000000000000000000000000000000000000000060016040518663ffffffff1660e01b8152600401610c7d95949392919061238d565b6020604051808303816000875af1158015610c9c573d6000803e3d6000fd5b505050506040513d601f19601f82011682018060405250810190610cc091906123f5565b9050807fff4d9122b4213ff3ee8322521d6bc1397ad727d4563e02f00b3346cf834fe07560405160405180910390a250565b60008060009054906101000a900473ffffffffffffffffffffffffffffffffffffffff16905090565b60006002811115610d2f57610d2e6122e6565b5b600860009054906101000a900460ff166002811115610d5157610d506122e6565b5b14610d88576040517f68e3d0e600000000000000000000000000000000000000000000000000000000815260040160405180910390fd5b600154341015610dc4576040517f3b82066900000000000000000000000000000000000000000000000000000000815260040160405180910390fd5b600060015434610dd49190612554565b90508060096000828254610de891906124c8565b9250508190555060005b81811015610e70576004339080600181540180825580915050600190039060005260206000200160009091909190916101000a81548173ffffffffffffffffffffffffffffffffffffffff021916908373ffffffffffffffffffffffffffffffffffffffff1602179055508080610e6890612480565b915050610df2565b506000600560003373ffffffffffffffffffffffffffffffffffffffff1673ffffffffffffffffffffffffffffffffffffffff1681526020019081526020016000205403610f1c576006339080600181540180825580915050600190039060005260206000200160009091909190916101000a81548173ffffffffffffffffffffffffffffffffffffffff021916908373ffffffffffffffffffffffffffffffffffffffff1602179055505b80600560003373ffffffffffffffffffffffffffffffffffffffff1673ffffffffffffffffffffffffffffffffffffffff1681526020019081526020016000206000828254610f6b91906124c8565b925050819055507fc28711c8dcc0cb3d25732e13809d1d8c2640669a0a3fb4f7729810a9caaffdff3382604051610fa3929190612585565b60405180910390a150565b610fb661161b565b600280811115610fc957610fc86122e6565b5b600860009054906101000a900460ff166002811115610feb57610fea6122e6565b5b14611022576040517f7901144300000000000000000000000000000000000000000000000000000000815260040160405180910390fd5b600060026004805490506110369190612554565b905060006004828154811061104e5761104d612422565b5b9060005260206000200160009054906101000a900473ffffffffffffffffffffffffffffffffffffffff16905060006064605a4761108c91906125ae565b6110969190612554565b905060008273ffffffffffffffffffffffffffffffffffffffff16826040516110be90612621565b60006040518083038185875af1925050503d80600081146110fb576040519150601f19603f3d011682016040523d82523d6000602084013e611100565b606091505b505090506000600a60009054906101000a900473ffffffffffffffffffffffffffffffffffffffff1673ffffffffffffffffffffffffffffffffffffffff164760405161114c90612621565b60006040518083038185875af1925050503d8060008114611189576040519150601f19603f3d011682016040523d82523d6000602084013e61118e565b606091505b505090508373ffffffffffffffffffffffffffffffffffffffff167fc5d1e2a43e1052756e222065802cb80a029bfaf7045b3df42c5c87b92e48de41846040516111d89190611be8565b60405180910390a28115806111eb575080155b15611222576040517fe88a1fa000000000000000000000000000000000000000000000000000000000815260040160405180910390fd5b61122a61175d565b5050505050565b61123961161b565b6000600281111561124d5761124c6122e6565b5b600860009054906101000a900460ff16600281111561126f5761126e6122e6565b5b036112a6576040517f7901144300000000000000000000000000000000000000000000000000000000815260040160405180910390fd5b836001819055508260028190555081600381905550603c816112c891906125ae565b426112d391906124c8565b6007819055506000600860006101000a81548160ff021916908360028111156112ff576112fe6122e6565b5b02179055507fd029c7c68d943f92286a7825fa6aa2deefa1eee46cee6c91b7e483fd06d27baf60405160405180910390a150505050565b60095481565b60015481565b61134a61161b565b600073ffffffffffffffffffffffffffffffffffffffff168173ffffffffffffffffffffffffffffffffffffffff16036113b9576040517f08c379a00000000000000000000000000000000000000000000000000000000081526004016113b0906126a8565b60405180910390fd5b6113c281611699565b50565b6001600860006101000a81548160ff021916908360028111156113eb576113ea6122e6565b5b021790555060006004805490508260008151811061140c5761140b612422565b5b602002602001015161141e91906126c8565b905060006004828154811061143657611435612422565b5b9060005260206000200160009054906101000a900473ffffffffffffffffffffffffffffffffffffffff16905060006064605a4761147491906125ae565b61147e9190612554565b905060008273ffffffffffffffffffffffffffffffffffffffff16826040516114a690612621565b60006040518083038185875af1925050503d80600081146114e3576040519150601f19603f3d011682016040523d82523d6000602084013e6114e8565b606091505b505090506000600a60009054906101000a900473ffffffffffffffffffffffffffffffffffffffff1673ffffffffffffffffffffffffffffffffffffffff164760405161153490612621565b60006040518083038185875af1925050503d8060008114611571576040519150601f19603f3d011682016040523d82523d6000602084013e611576565b606091505b505090508373ffffffffffffffffffffffffffffffffffffffff167fc5d1e2a43e1052756e222065802cb80a029bfaf7045b3df42c5c87b92e48de41846040516115c09190611be8565b60405180910390a26115d061175d565b8115806115db575080155b15611612576040517fe88a1fa000000000000000000000000000000000000000000000000000000000815260040160405180910390fd5b50505050505050565b611623611991565b73ffffffffffffffffffffffffffffffffffffffff16611641610cf2565b73ffffffffffffffffffffffffffffffffffffffff1614611697576040517f08c379a000000000000000000000000000000000000000000000000000000000815260040161168e90612745565b60405180910390fd5b565b60008060009054906101000a900473ffffffffffffffffffffffffffffffffffffffff169050816000806101000a81548173ffffffffffffffffffffffffffffffffffffffff021916908373ffffffffffffffffffffffffffffffffffffffff1602179055508173ffffffffffffffffffffffffffffffffffffffff168173ffffffffffffffffffffffffffffffffffffffff167f8be0079c531659141344cd1fd0a4f28419497f9722a3daafe3b4186f6b6457e060405160405180910390a35050565b600060068054806020026020016040519081016040528092919081815260200182805480156117e157602002820191906000526020600020905b8160009054906101000a900473ffffffffffffffffffffffffffffffffffffffff1673ffffffffffffffffffffffffffffffffffffffff1681526020019060010190808311611797575b50505050509050600067ffffffffffffffff81111561180357611802611c45565b5b6040519080825280602002602001820160405280156118315781602001602082028036833780820191505090505b50600490805190602001906118479291906119ff565b5060005b81518110156118c65760006005600084848151811061186d5761186c612422565b5b602002602001015173ffffffffffffffffffffffffffffffffffffffff1673ffffffffffffffffffffffffffffffffffffffff1681526020019081526020016000208190555080806118be90612480565b91505061184b565b50600067ffffffffffffffff8111156118e2576118e1611c45565b5b6040519080825280602002602001820160405280156119105781602001602082028036833780820191505090505b5060069080519060200190611926929190611a89565b506001600860006101000a81548160ff0219169083600281111561194d5761194c6122e6565b5b0217905550600060028190555060006003819055507ffc2b180437972a94a98d643b705025c6263c595cce057cc3d910384b8d1d210c60405160405180910390a150565b600033905090565b6040518060c001604052806000815260200160008152602001600081526020016060815260200160008152602001606081525090565b6040518060400160405280600073ffffffffffffffffffffffffffffffffffffffff168152602001600081525090565b828054828255906000526020600020908101928215611a78579160200282015b82811115611a775782518260006101000a81548173ffffffffffffffffffffffffffffffffffffffff021916908373ffffffffffffffffffffffffffffffffffffffff16021790555091602001919060010190611a1f565b5b509050611a859190611b13565b5090565b828054828255906000526020600020908101928215611b02579160200282015b82811115611b015782518260006101000a81548173ffffffffffffffffffffffffffffffffffffffff021916908373ffffffffffffffffffffffffffffffffffffffff16021790555091602001919060010190611aa9565b5b509050611b0f9190611b13565b5090565b5b80821115611b2c576000816000905550600101611b14565b5090565b6000604051905090565b600080fd5b600080fd5b600073ffffffffffffffffffffffffffffffffffffffff82169050919050565b6000611b6f82611b44565b9050919050565b611b7f81611b64565b8114611b8a57600080fd5b50565b600081359050611b9c81611b76565b92915050565b600060208284031215611bb857611bb7611b3a565b5b6000611bc684828501611b8d565b91505092915050565b6000819050919050565b611be281611bcf565b82525050565b6000602082019050611bfd6000830184611bd9565b92915050565b611c0c81611bcf565b8114611c1757600080fd5b50565b600081359050611c2981611c03565b92915050565b600080fd5b6000601f19601f8301169050919050565b7f4e487b7100000000000000000000000000000000000000000000000000000000600052604160045260246000fd5b611c7d82611c34565b810181811067ffffffffffffffff82111715611c9c57611c9b611c45565b5b80604052505050565b6000611caf611b30565b9050611cbb8282611c74565b919050565b600067ffffffffffffffff821115611cdb57611cda611c45565b5b602082029050602081019050919050565b600080fd5b6000611d04611cff84611cc0565b611ca5565b90508083825260208201905060208402830185811115611d2757611d26611cec565b5b835b81811015611d505780611d3c8882611c1a565b845260208401935050602081019050611d29565b5050509392505050565b600082601f830112611d6f57611d6e611c2f565b5b8135611d7f848260208601611cf1565b91505092915050565b60008060408385031215611d9f57611d9e611b3a565b5b6000611dad85828601611c1a565b925050602083013567ffffffffffffffff811115611dce57611dcd611b3f565b5b611dda85828601611d5a565b9150509250929050565b600080fd5b600067ffffffffffffffff821115611e0457611e03611c45565b5b611e0d82611c34565b9050602081019050919050565b82818337600083830152505050565b6000611e3c611e3784611de9565b611ca5565b905082815260208101848484011115611e5857611e57611de4565b5b611e63848285611e1a565b509392505050565b600082601f830112611e8057611e7f611c2f565b5b8135611e90848260208601611e29565b91505092915050565b600060208284031215611eaf57611eae611b3a565b5b600082013567ffffffffffffffff811115611ecd57611ecc611b3f565b5b611ed984828501611e6b565b91505092915050565b611eeb81611bcf565b82525050565b600081519050919050565b600082825260208201905092915050565b6000819050602082019050919050565b611f2681611b64565b82525050565b604082016000820151611f426000850182611f1d565b506020820151611f556020850182611ee2565b50505050565b6000611f678383611f2c565b60408301905092915050565b6000602082019050919050565b6000611f8b82611ef1565b611f958185611efc565b9350611fa083611f0d565b8060005b83811015611fd1578151611fb88882611f5b565b9750611fc383611f73565b925050600181019050611fa4565b5085935050505092915050565b600081519050919050565b600082825260208201905092915050565b60005b83811015612018578082015181840152602081019050611ffd565b60008484015250505050565b600061202f82611fde565b6120398185611fe9565b9350612049818560208601611ffa565b61205281611c34565b840191505092915050565b600060c0830160008301516120756000860182611ee2565b5060208301516120886020860182611ee2565b50604083015161209b6040860182611ee2565b50606083015184820360608601526120b38282611f80565b91505060808301516120c86080860182611ee2565b5060a083015184820360a08601526120e08282612024565b9150508091505092915050565b60006020820190508181036000830152612107818461205d565b905092915050565b60008115159050919050565b6121248161210f565b82525050565b600081519050919050565b600082825260208201905092915050565b60006121518261212a565b61215b8185612135565b935061216b818560208601611ffa565b61217481611c34565b840191505092915050565b6000604082019050612194600083018561211b565b81810360208301526121a68184612146565b90509392505050565b6121b881611b64565b82525050565b60006020820190506121d360008301846121af565b92915050565b600080600080608085870312156121f3576121f2611b3a565b5b600061220187828801611c1a565b945050602061221287828801611c1a565b935050604061222387828801611c1a565b925050606061223487828801611c1a565b91505092959194509250565b600060408201905061225560008301856121af565b61226260208301846121af565b9392505050565b600082825260208201905092915050565b7f4e6f2075706b656570206e656564656400000000000000000000000000000000600082015250565b60006122b0601083612269565b91506122bb8261227a565b602082019050919050565b600060208201905081810360008301526122df816122a3565b9050919050565b7f4e487b7100000000000000000000000000000000000000000000000000000000600052602160045260246000fd5b6000819050919050565b61232881612315565b82525050565b600067ffffffffffffffff82169050919050565b61234b8161232e565b82525050565b600061ffff82169050919050565b61236881612351565b82525050565b600063ffffffff82169050919050565b6123878161236e565b82525050565b600060a0820190506123a2600083018861231f565b6123af6020830187612342565b6123bc604083018661235f565b6123c9606083018561237e565b6123d6608083018461237e565b9695505050505050565b6000815190506123ef81611c03565b92915050565b60006020828403121561240b5761240a611b3a565b5b6000612419848285016123e0565b91505092915050565b7f4e487b7100000000000000000000000000000000000000000000000000000000600052603260045260246000fd5b7f4e487b7100000000000000000000000000000000000000000000000000000000600052601160045260246000fd5b600061248b82611bcf565b91507fffffffffffffffffffffffffffffffffffffffffffffffffffffffffffffffff82036124bd576124bc612451565b5b600182019050919050565b60006124d382611bcf565b91506124de83611bcf565b92508282019050808211156124f6576124f5612451565b5b92915050565b60006040820190506125116000830185611bd9565b61251e6020830184611bd9565b9392505050565b7f4e487b7100000000000000000000000000000000000000000000000000000000600052601260045260246000fd5b600061255f82611bcf565b915061256a83611bcf565b92508261257a57612579612525565b5b828204905092915050565b600060408201905061259a60008301856121af565b6125a76020830184611bd9565b9392505050565b60006125b982611bcf565b91506125c483611bcf565b92508282026125d281611bcf565b915082820484148315176125e9576125e8612451565b5b5092915050565b600081905092915050565b50565b600061260b6000836125f0565b9150612616826125fb565b600082019050919050565b600061262c826125fe565b9150819050919050565b7f4f776e61626c653a206e6577206f776e657220697320746865207a65726f206160008201527f6464726573730000000000000000000000000000000000000000000000000000602082015250565b6000612692602683612269565b915061269d82612636565b604082019050919050565b600060208201905081810360008301526126c181612685565b9050919050565b60006126d382611bcf565b91506126de83611bcf565b9250826126ee576126ed612525565b5b828206905092915050565b7f4f776e61626c653a2063616c6c6572206973206e6f7420746865206f776e6572600082015250565b600061272f602083612269565b915061273a826126f9565b602082019050919050565b6000602082019050818103600083015261275e81612722565b905091905056fea264697066735822122099e151e46a35891fddc86ba5b0d923ec32ff3b2547879e81ac25fa189725d9b464736f6c63430008110033",
      "opcodes": "PUSH2 0x120 PUSH1 0x40 MSTORE CALLVALUE DUP1 ISZERO PUSH3 0x12 JUMPI PUSH1 0x0 DUP1 REVERT JUMPDEST POP PUSH1 0x40 MLOAD PUSH3 0x2C7D CODESIZE SUB DUP1 PUSH3 0x2C7D DUP4 CODECOPY DUP2 DUP2 ADD PUSH1 0x40 MSTORE DUP2 ADD SWAP1 PUSH3 0x38 SWAP2 SWAP1 PUSH3 0x3AF JUMP JUMPDEST DUP6 DUP1 PUSH20 0xFFFFFFFFFFFFFFFFFFFFFFFFFFFFFFFFFFFFFFFF AND PUSH1 0x80 DUP2 PUSH20 0xFFFFFFFFFFFFFFFFFFFFFFFFFFFFFFFFFFFFFFFF AND DUP2 MSTORE POP POP POP PUSH3 0x8E PUSH3 0x82 PUSH3 0x17D PUSH1 0x20 SHL PUSH1 0x20 SHR JUMP JUMPDEST PUSH3 0x185 PUSH1 0x20 SHL PUSH1 0x20 SHR JUMP JUMPDEST DUP4 PUSH1 0x1 DUP2 SWAP1 SSTORE POP DUP6 PUSH20 0xFFFFFFFFFFFFFFFFFFFFFFFFFFFFFFFFFFFFFFFF AND PUSH1 0xA0 DUP2 PUSH20 0xFFFFFFFFFFFFFFFFFFFFFFFFFFFFFFFFFFFFFFFF AND DUP2 MSTORE POP POP DUP3 PUSH1 0xC0 DUP2 DUP2 MSTORE POP POP DUP2 PUSH8 0xFFFFFFFFFFFFFFFF AND PUSH1 0xE0 DUP2 PUSH8 0xFFFFFFFFFFFFFFFF AND DUP2 MSTORE POP POP DUP1 PUSH4 0xFFFFFFFF AND PUSH2 0x100 DUP2 PUSH4 0xFFFFFFFF AND DUP2 MSTORE POP POP PUSH1 0x1 PUSH1 0x8 PUSH1 0x0 PUSH2 0x100 EXP DUP2 SLOAD DUP2 PUSH1 0xFF MUL NOT AND SWAP1 DUP4 PUSH1 0x2 DUP2 GT ISZERO PUSH3 0x12B JUMPI PUSH3 0x12A PUSH3 0x44B JUMP JUMPDEST JUMPDEST MUL OR SWAP1 SSTORE POP DUP5 PUSH1 0xA PUSH1 0x0 PUSH2 0x100 EXP DUP2 SLOAD DUP2 PUSH20 0xFFFFFFFFFFFFFFFFFFFFFFFFFFFFFFFFFFFFFFFF MUL NOT AND SWAP1 DUP4 PUSH20 0xFFFFFFFFFFFFFFFFFFFFFFFFFFFFFFFFFFFFFFFF AND MUL OR SWAP1 SSTORE POP POP POP POP POP POP POP PUSH3 0x47A JUMP JUMPDEST PUSH1 0x0 CALLER SWAP1 POP SWAP1 JUMP JUMPDEST PUSH1 0x0 DUP1 PUSH1 0x0 SWAP1 SLOAD SWAP1 PUSH2 0x100 EXP SWAP1 DIV PUSH20 0xFFFFFFFFFFFFFFFFFFFFFFFFFFFFFFFFFFFFFFFF AND SWAP1 POP DUP2 PUSH1 0x0 DUP1 PUSH2 0x100 EXP DUP2 SLOAD DUP2 PUSH20 0xFFFFFFFFFFFFFFFFFFFFFFFFFFFFFFFFFFFFFFFF MUL NOT AND SWAP1 DUP4 PUSH20 0xFFFFFFFFFFFFFFFFFFFFFFFFFFFFFFFFFFFFFFFF AND MUL OR SWAP1 SSTORE POP DUP2 PUSH20 0xFFFFFFFFFFFFFFFFFFFFFFFFFFFFFFFFFFFFFFFF AND DUP2 PUSH20 0xFFFFFFFFFFFFFFFFFFFFFFFFFFFFFFFFFFFFFFFF AND PUSH32 0x8BE0079C531659141344CD1FD0A4F28419497F9722A3DAAFE3B4186F6B6457E0 PUSH1 0x40 MLOAD PUSH1 0x40 MLOAD DUP1 SWAP2 SUB SWAP1 LOG3 POP POP JUMP JUMPDEST PUSH1 0x0 DUP1 REVERT JUMPDEST PUSH1 0x0 PUSH20 0xFFFFFFFFFFFFFFFFFFFFFFFFFFFFFFFFFFFFFFFF DUP3 AND SWAP1 POP SWAP2 SWAP1 POP JUMP JUMPDEST PUSH1 0x0 PUSH3 0x27B DUP3 PUSH3 0x24E JUMP JUMPDEST SWAP1 POP SWAP2 SWAP1 POP JUMP JUMPDEST PUSH3 0x28D DUP2 PUSH3 0x26E JUMP JUMPDEST DUP2 EQ PUSH3 0x299 JUMPI PUSH1 0x0 DUP1 REVERT JUMPDEST POP JUMP JUMPDEST PUSH1 0x0 DUP2 MLOAD SWAP1 POP PUSH3 0x2AD DUP2 PUSH3 0x282 JUMP JUMPDEST SWAP3 SWAP2 POP POP JUMP JUMPDEST PUSH1 0x0 DUP2 SWAP1 POP SWAP2 SWAP1 POP JUMP JUMPDEST PUSH3 0x2C8 DUP2 PUSH3 0x2B3 JUMP JUMPDEST DUP2 EQ PUSH3 0x2D4 JUMPI PUSH1 0x0 DUP1 REVERT JUMPDEST POP JUMP JUMPDEST PUSH1 0x0 DUP2 MLOAD SWAP1 POP PUSH3 0x2E8 DUP2 PUSH3 0x2BD JUMP JUMPDEST SWAP3 SWAP2 POP POP JUMP JUMPDEST PUSH1 0x0 DUP2 SWAP1 POP SWAP2 SWAP1 POP JUMP JUMPDEST PUSH3 0x303 DUP2 PUSH3 0x2EE JUMP JUMPDEST DUP2 EQ PUSH3 0x30F JUMPI PUSH1 0x0 DUP1 REVERT JUMPDEST POP JUMP JUMPDEST PUSH1 0x0 DUP2 MLOAD SWAP1 POP PUSH3 0x323 DUP2 PUSH3 0x2F8 JUMP JUMPDEST SWAP3 SWAP2 POP POP JUMP JUMPDEST PUSH1 0x0 PUSH8 0xFFFFFFFFFFFFFFFF DUP3 AND SWAP1 POP SWAP2 SWAP1 POP JUMP JUMPDEST PUSH3 0x348 DUP2 PUSH3 0x329 JUMP JUMPDEST DUP2 EQ PUSH3 0x354 JUMPI PUSH1 0x0 DUP1 REVERT JUMPDEST POP JUMP JUMPDEST PUSH1 0x0 DUP2 MLOAD SWAP1 POP PUSH3 0x368 DUP2 PUSH3 0x33D JUMP JUMPDEST SWAP3 SWAP2 POP POP JUMP JUMPDEST PUSH1 0x0 PUSH4 0xFFFFFFFF DUP3 AND SWAP1 POP SWAP2 SWAP1 POP JUMP JUMPDEST PUSH3 0x389 DUP2 PUSH3 0x36E JUMP JUMPDEST DUP2 EQ PUSH3 0x395 JUMPI PUSH1 0x0 DUP1 REVERT JUMPDEST POP JUMP JUMPDEST PUSH1 0x0 DUP2 MLOAD SWAP1 POP PUSH3 0x3A9 DUP2 PUSH3 0x37E JUMP JUMPDEST SWAP3 SWAP2 POP POP JUMP JUMPDEST PUSH1 0x0 DUP1 PUSH1 0x0 DUP1 PUSH1 0x0 DUP1 PUSH1 0xC0 DUP8 DUP10 SUB SLT ISZERO PUSH3 0x3CF JUMPI PUSH3 0x3CE PUSH3 0x249 JUMP JUMPDEST JUMPDEST PUSH1 0x0 PUSH3 0x3DF DUP10 DUP3 DUP11 ADD PUSH3 0x29C JUMP JUMPDEST SWAP7 POP POP PUSH1 0x20 PUSH3 0x3F2 DUP10 DUP3 DUP11 ADD PUSH3 0x29C JUMP JUMPDEST SWAP6 POP POP PUSH1 0x40 PUSH3 0x405 DUP10 DUP3 DUP11 ADD PUSH3 0x2D7 JUMP JUMPDEST SWAP5 POP POP PUSH1 0x60 PUSH3 0x418 DUP10 DUP3 DUP11 ADD PUSH3 0x312 JUMP JUMPDEST SWAP4 POP POP PUSH1 0x80 PUSH3 0x42B DUP10 DUP3 DUP11 ADD PUSH3 0x357 JUMP JUMPDEST SWAP3 POP POP PUSH1 0xA0 PUSH3 0x43E DUP10 DUP3 DUP11 ADD PUSH3 0x398 JUMP JUMPDEST SWAP2 POP POP SWAP3 SWAP6 POP SWAP3 SWAP6 POP SWAP3 SWAP6 JUMP JUMPDEST PUSH32 0x4E487B7100000000000000000000000000000000000000000000000000000000 PUSH1 0x0 MSTORE PUSH1 0x21 PUSH1 0x4 MSTORE PUSH1 0x24 PUSH1 0x0 REVERT JUMPDEST PUSH1 0x80 MLOAD PUSH1 0xA0 MLOAD PUSH1 0xC0 MLOAD PUSH1 0xE0 MLOAD PUSH2 0x100 MLOAD PUSH2 0x279B PUSH3 0x4E2 PUSH1 0x0 CODECOPY PUSH1 0x0 DUP2 DUP2 PUSH2 0x5F1 ADD MSTORE PUSH2 0xC3C ADD MSTORE PUSH1 0x0 DUP2 DUP2 PUSH2 0x5CE ADD MSTORE PUSH2 0xC19 ADD MSTORE PUSH1 0x0 DUP2 DUP2 PUSH2 0x5AD ADD MSTORE PUSH2 0xBF8 ADD MSTORE PUSH1 0x0 DUP2 DUP2 PUSH2 0x571 ADD MSTORE PUSH2 0xBBC ADD MSTORE PUSH1 0x0 DUP2 DUP2 PUSH2 0x3DB ADD MSTORE PUSH2 0x42F ADD MSTORE PUSH2 0x279B PUSH1 0x0 RETURN INVALID PUSH1 0x80 PUSH1 0x40 MSTORE PUSH1 0x4 CALLDATASIZE LT PUSH2 0xFE JUMPI PUSH1 0x0 CALLDATALOAD PUSH1 0xE0 SHR DUP1 PUSH4 0x715018A6 GT PUSH2 0x95 JUMPI DUP1 PUSH4 0xCD38AA87 GT PUSH2 0x64 JUMPI DUP1 PUSH4 0xCD38AA87 EQ PUSH2 0x2C9 JUMPI DUP1 PUSH4 0xD537B482 EQ PUSH2 0x2E0 JUMPI DUP1 PUSH4 0xDD11247E EQ PUSH2 0x309 JUMPI DUP1 PUSH4 0xDFD39A82 EQ PUSH2 0x334 JUMPI DUP1 PUSH4 0xF2FDE38B EQ PUSH2 0x35F JUMPI PUSH2 0xFE JUMP JUMPDEST DUP1 PUSH4 0x715018A6 EQ PUSH2 0x266 JUMPI DUP1 PUSH4 0x8678A7B2 EQ PUSH2 0x27D JUMPI DUP1 PUSH4 0x8DA5CB5B EQ PUSH2 0x294 JUMPI DUP1 PUSH4 0xC1AF5785 EQ PUSH2 0x2BF JUMPI PUSH2 0xFE JUMP JUMPDEST DUP1 PUSH4 0x4585E33B GT PUSH2 0xD1 JUMPI DUP1 PUSH4 0x4585E33B EQ PUSH2 0x1BD JUMPI DUP1 PUSH4 0x6B68C03C EQ PUSH2 0x1E6 JUMPI DUP1 PUSH4 0x6E04FF0D EQ PUSH2 0x211 JUMPI DUP1 PUSH4 0x6FD09816 EQ PUSH2 0x24F JUMPI PUSH2 0xFE JUMP JUMPDEST DUP1 PUSH4 0x484A22F EQ PUSH2 0x103 JUMPI DUP1 PUSH4 0x12065FE0 EQ PUSH2 0x140 JUMPI DUP1 PUSH4 0x1FE543E3 EQ PUSH2 0x16B JUMPI DUP1 PUSH4 0x2C1E816D EQ PUSH2 0x194 JUMPI JUMPDEST PUSH1 0x0 DUP1 REVERT JUMPDEST CALLVALUE DUP1 ISZERO PUSH2 0x10F JUMPI PUSH1 0x0 DUP1 REVERT JUMPDEST POP PUSH2 0x12A PUSH1 0x4 DUP1 CALLDATASIZE SUB DUP2 ADD SWAP1 PUSH2 0x125 SWAP2 SWAP1 PUSH2 0x1BA2 JUMP JUMPDEST PUSH2 0x388 JUMP JUMPDEST PUSH1 0x40 MLOAD PUSH2 0x137 SWAP2 SWAP1 PUSH2 0x1BE8 JUMP JUMPDEST PUSH1 0x40 MLOAD DUP1 SWAP2 SUB SWAP1 RETURN JUMPDEST CALLVALUE DUP1 ISZERO PUSH2 0x14C JUMPI PUSH1 0x0 DUP1 REVERT JUMPDEST POP PUSH2 0x155 PUSH2 0x3D1 JUMP JUMPDEST PUSH1 0x40 MLOAD PUSH2 0x162 SWAP2 SWAP1 PUSH2 0x1BE8 JUMP JUMPDEST PUSH1 0x40 MLOAD DUP1 SWAP2 SUB SWAP1 RETURN JUMPDEST CALLVALUE DUP1 ISZERO PUSH2 0x177 JUMPI PUSH1 0x0 DUP1 REVERT JUMPDEST POP PUSH2 0x192 PUSH1 0x4 DUP1 CALLDATASIZE SUB DUP2 ADD SWAP1 PUSH2 0x18D SWAP2 SWAP1 PUSH2 0x1D88 JUMP JUMPDEST PUSH2 0x3D9 JUMP JUMPDEST STOP JUMPDEST CALLVALUE DUP1 ISZERO PUSH2 0x1A0 JUMPI PUSH1 0x0 DUP1 REVERT JUMPDEST POP PUSH2 0x1BB PUSH1 0x4 DUP1 CALLDATASIZE SUB DUP2 ADD SWAP1 PUSH2 0x1B6 SWAP2 SWAP1 PUSH2 0x1BA2 JUMP JUMPDEST PUSH2 0x499 JUMP JUMPDEST STOP JUMPDEST CALLVALUE DUP1 ISZERO PUSH2 0x1C9 JUMPI PUSH1 0x0 DUP1 REVERT JUMPDEST POP PUSH2 0x1E4 PUSH1 0x4 DUP1 CALLDATASIZE SUB DUP2 ADD SWAP1 PUSH2 0x1DF SWAP2 SWAP1 PUSH2 0x1E99 JUMP JUMPDEST PUSH2 0x4E5 JUMP JUMPDEST STOP JUMPDEST CALLVALUE DUP1 ISZERO PUSH2 0x1F2 JUMPI PUSH1 0x0 DUP1 REVERT JUMPDEST POP PUSH2 0x1FB PUSH2 0x6A9 JUMP JUMPDEST PUSH1 0x40 MLOAD PUSH2 0x208 SWAP2 SWAP1 PUSH2 0x20ED JUMP JUMPDEST PUSH1 0x40 MLOAD DUP1 SWAP2 SUB SWAP1 RETURN JUMPDEST CALLVALUE DUP1 ISZERO PUSH2 0x21D JUMPI PUSH1 0x0 DUP1 REVERT JUMPDEST POP PUSH2 0x238 PUSH1 0x4 DUP1 CALLDATASIZE SUB DUP2 ADD SWAP1 PUSH2 0x233 SWAP2 SWAP1 PUSH2 0x1E99 JUMP JUMPDEST PUSH2 0x99E JUMP JUMPDEST PUSH1 0x40 MLOAD PUSH2 0x246 SWAP3 SWAP2 SWAP1 PUSH2 0x217F JUMP JUMPDEST PUSH1 0x40 MLOAD DUP1 SWAP2 SUB SWAP1 RETURN JUMPDEST CALLVALUE DUP1 ISZERO PUSH2 0x25B JUMPI PUSH1 0x0 DUP1 REVERT JUMPDEST POP PUSH2 0x264 PUSH2 0xADB JUMP JUMPDEST STOP JUMPDEST CALLVALUE DUP1 ISZERO PUSH2 0x272 JUMPI PUSH1 0x0 DUP1 REVERT JUMPDEST POP PUSH2 0x27B PUSH2 0xB9C JUMP JUMPDEST STOP JUMPDEST CALLVALUE DUP1 ISZERO PUSH2 0x289 JUMPI PUSH1 0x0 DUP1 REVERT JUMPDEST POP PUSH2 0x292 PUSH2 0xBB0 JUMP JUMPDEST STOP JUMPDEST CALLVALUE DUP1 ISZERO PUSH2 0x2A0 JUMPI PUSH1 0x0 DUP1 REVERT JUMPDEST POP PUSH2 0x2A9 PUSH2 0xCF2 JUMP JUMPDEST PUSH1 0x40 MLOAD PUSH2 0x2B6 SWAP2 SWAP1 PUSH2 0x21BE JUMP JUMPDEST PUSH1 0x40 MLOAD DUP1 SWAP2 SUB SWAP1 RETURN JUMPDEST PUSH2 0x2C7 PUSH2 0xD1B JUMP JUMPDEST STOP JUMPDEST CALLVALUE DUP1 ISZERO PUSH2 0x2D5 JUMPI PUSH1 0x0 DUP1 REVERT JUMPDEST POP PUSH2 0x2DE PUSH2 0xFAE JUMP JUMPDEST STOP JUMPDEST CALLVALUE DUP1 ISZERO PUSH2 0x2EC JUMPI PUSH1 0x0 DUP1 REVERT JUMPDEST POP PUSH2 0x307 PUSH1 0x4 DUP1 CALLDATASIZE SUB DUP2 ADD SWAP1 PUSH2 0x302 SWAP2 SWAP1 PUSH2 0x21D9 JUMP JUMPDEST PUSH2 0x1231 JUMP JUMPDEST STOP JUMPDEST CALLVALUE DUP1 ISZERO PUSH2 0x315 JUMPI PUSH1 0x0 DUP1 REVERT JUMPDEST POP PUSH2 0x31E PUSH2 0x1336 JUMP JUMPDEST PUSH1 0x40 MLOAD PUSH2 0x32B SWAP2 SWAP1 PUSH2 0x1BE8 JUMP JUMPDEST PUSH1 0x40 MLOAD DUP1 SWAP2 SUB SWAP1 RETURN JUMPDEST CALLVALUE DUP1 ISZERO PUSH2 0x340 JUMPI PUSH1 0x0 DUP1 REVERT JUMPDEST POP PUSH2 0x349 PUSH2 0x133C JUMP JUMPDEST PUSH1 0x40 MLOAD PUSH2 0x356 SWAP2 SWAP1 PUSH2 0x1BE8 JUMP JUMPDEST PUSH1 0x40 MLOAD DUP1 SWAP2 SUB SWAP1 RETURN JUMPDEST CALLVALUE DUP1 ISZERO PUSH2 0x36B JUMPI PUSH1 0x0 DUP1 REVERT JUMPDEST POP PUSH2 0x386 PUSH1 0x4 DUP1 CALLDATASIZE SUB DUP2 ADD SWAP1 PUSH2 0x381 SWAP2 SWAP1 PUSH2 0x1BA2 JUMP JUMPDEST PUSH2 0x1342 JUMP JUMPDEST STOP JUMPDEST PUSH1 0x0 PUSH1 0x5 PUSH1 0x0 DUP4 PUSH20 0xFFFFFFFFFFFFFFFFFFFFFFFFFFFFFFFFFFFFFFFF AND PUSH20 0xFFFFFFFFFFFFFFFFFFFFFFFFFFFFFFFFFFFFFFFF AND DUP2 MSTORE PUSH1 0x20 ADD SWAP1 DUP2 MSTORE PUSH1 0x20 ADD PUSH1 0x0 KECCAK256 SLOAD SWAP1 POP SWAP2 SWAP1 POP JUMP JUMPDEST PUSH1 0x0 SELFBALANCE SWAP1 POP SWAP1 JUMP JUMPDEST PUSH32 0x0 PUSH20 0xFFFFFFFFFFFFFFFFFFFFFFFFFFFFFFFFFFFFFFFF AND CALLER PUSH20 0xFFFFFFFFFFFFFFFFFFFFFFFFFFFFFFFFFFFFFFFF AND EQ PUSH2 0x48B JUMPI CALLER PUSH32 0x0 PUSH1 0x40 MLOAD PUSH32 0x1CF993F400000000000000000000000000000000000000000000000000000000 DUP2 MSTORE PUSH1 0x4 ADD PUSH2 0x482 SWAP3 SWAP2 SWAP1 PUSH2 0x2240 JUMP JUMPDEST PUSH1 0x40 MLOAD DUP1 SWAP2 SUB SWAP1 REVERT JUMPDEST PUSH2 0x495 DUP3 DUP3 PUSH2 0x13C5 JUMP JUMPDEST POP POP JUMP JUMPDEST PUSH2 0x4A1 PUSH2 0x161B JUMP JUMPDEST DUP1 PUSH1 0xA PUSH1 0x0 PUSH2 0x100 EXP DUP2 SLOAD DUP2 PUSH20 0xFFFFFFFFFFFFFFFFFFFFFFFFFFFFFFFFFFFFFFFF MUL NOT AND SWAP1 DUP4 PUSH20 0xFFFFFFFFFFFFFFFFFFFFFFFFFFFFFFFFFFFFFFFF AND MUL OR SWAP1 SSTORE POP POP JUMP JUMPDEST PUSH1 0x0 PUSH2 0x4FF PUSH1 0x40 MLOAD DUP1 PUSH1 0x20 ADD PUSH1 0x40 MSTORE DUP1 PUSH1 0x0 DUP2 MSTORE POP PUSH2 0x99E JUMP JUMPDEST POP SWAP1 POP DUP1 PUSH2 0x542 JUMPI PUSH1 0x40 MLOAD PUSH32 0x8C379A000000000000000000000000000000000000000000000000000000000 DUP2 MSTORE PUSH1 0x4 ADD PUSH2 0x539 SWAP1 PUSH2 0x22C6 JUMP JUMPDEST PUSH1 0x40 MLOAD DUP1 SWAP2 SUB SWAP1 REVERT JUMPDEST PUSH1 0x2 PUSH1 0x8 PUSH1 0x0 PUSH2 0x100 EXP DUP2 SLOAD DUP2 PUSH1 0xFF MUL NOT AND SWAP1 DUP4 PUSH1 0x2 DUP2 GT ISZERO PUSH2 0x568 JUMPI PUSH2 0x567 PUSH2 0x22E6 JUMP JUMPDEST JUMPDEST MUL OR SWAP1 SSTORE POP PUSH1 0x0 PUSH32 0x0 PUSH20 0xFFFFFFFFFFFFFFFFFFFFFFFFFFFFFFFFFFFFFFFF AND PUSH4 0x5D3B1D30 PUSH32 0x0 PUSH32 0x0 PUSH1 0x3 PUSH32 0x0 PUSH1 0x1 PUSH1 0x40 MLOAD DUP7 PUSH4 0xFFFFFFFF AND PUSH1 0xE0 SHL DUP2 MSTORE PUSH1 0x4 ADD PUSH2 0x632 SWAP6 SWAP5 SWAP4 SWAP3 SWAP2 SWAP1 PUSH2 0x238D JUMP JUMPDEST PUSH1 0x20 PUSH1 0x40 MLOAD DUP1 DUP4 SUB DUP2 PUSH1 0x0 DUP8 GAS CALL ISZERO DUP1 ISZERO PUSH2 0x651 JUMPI RETURNDATASIZE PUSH1 0x0 DUP1 RETURNDATACOPY RETURNDATASIZE PUSH1 0x0 REVERT JUMPDEST POP POP POP POP PUSH1 0x40 MLOAD RETURNDATASIZE PUSH1 0x1F NOT PUSH1 0x1F DUP3 ADD AND DUP3 ADD DUP1 PUSH1 0x40 MSTORE POP DUP2 ADD SWAP1 PUSH2 0x675 SWAP2 SWAP1 PUSH2 0x23F5 JUMP JUMPDEST SWAP1 POP DUP1 PUSH32 0xFF4D9122B4213FF3EE8322521D6BC1397AD727D4563E02F00B3346CF834FE075 PUSH1 0x40 MLOAD PUSH1 0x40 MLOAD DUP1 SWAP2 SUB SWAP1 LOG2 POP POP POP JUMP JUMPDEST PUSH2 0x6B1 PUSH2 0x1999 JUMP JUMPDEST PUSH1 0x60 PUSH1 0x0 PUSH1 0x2 DUP2 GT ISZERO PUSH2 0x6C7 JUMPI PUSH2 0x6C6 PUSH2 0x22E6 JUMP JUMPDEST JUMPDEST PUSH1 0x8 PUSH1 0x0 SWAP1 SLOAD SWAP1 PUSH2 0x100 EXP SWAP1 DIV PUSH1 0xFF AND PUSH1 0x2 DUP2 GT ISZERO PUSH2 0x6E9 JUMPI PUSH2 0x6E8 PUSH2 0x22E6 JUMP JUMPDEST JUMPDEST SUB PUSH2 0x72B JUMPI PUSH1 0x40 MLOAD DUP1 PUSH1 0x40 ADD PUSH1 0x40 MSTORE DUP1 PUSH1 0x4 DUP2 MSTORE PUSH1 0x20 ADD PUSH32 0x4F70656E00000000000000000000000000000000000000000000000000000000 DUP2 MSTORE POP SWAP1 POP PUSH2 0x7DD JUMP JUMPDEST PUSH1 0x1 PUSH1 0x2 DUP2 GT ISZERO PUSH2 0x73F JUMPI PUSH2 0x73E PUSH2 0x22E6 JUMP JUMPDEST JUMPDEST PUSH1 0x8 PUSH1 0x0 SWAP1 SLOAD SWAP1 PUSH2 0x100 EXP SWAP1 DIV PUSH1 0xFF AND PUSH1 0x2 DUP2 GT ISZERO PUSH2 0x761 JUMPI PUSH2 0x760 PUSH2 0x22E6 JUMP JUMPDEST JUMPDEST SUB PUSH2 0x7A3 JUMPI PUSH1 0x40 MLOAD DUP1 PUSH1 0x40 ADD PUSH1 0x40 MSTORE DUP1 PUSH1 0x6 DUP2 MSTORE PUSH1 0x20 ADD PUSH32 0x436C6F7365640000000000000000000000000000000000000000000000000000 DUP2 MSTORE POP SWAP1 POP PUSH2 0x7DC JUMP JUMPDEST PUSH1 0x40 MLOAD DUP1 PUSH1 0x40 ADD PUSH1 0x40 MSTORE DUP1 PUSH1 0xF DUP2 MSTORE PUSH1 0x20 ADD PUSH32 0x43686F6F73696E672077696E6E65720000000000000000000000000000000000 DUP2 MSTORE POP SWAP1 POP JUMPDEST JUMPDEST PUSH1 0x0 PUSH1 0x6 DUP1 SLOAD SWAP1 POP PUSH8 0xFFFFFFFFFFFFFFFF DUP2 GT ISZERO PUSH2 0x7FE JUMPI PUSH2 0x7FD PUSH2 0x1C45 JUMP JUMPDEST JUMPDEST PUSH1 0x40 MLOAD SWAP1 DUP1 DUP3 MSTORE DUP1 PUSH1 0x20 MUL PUSH1 0x20 ADD DUP3 ADD PUSH1 0x40 MSTORE DUP1 ISZERO PUSH2 0x837 JUMPI DUP2 PUSH1 0x20 ADD JUMPDEST PUSH2 0x824 PUSH2 0x19CF JUMP JUMPDEST DUP2 MSTORE PUSH1 0x20 ADD SWAP1 PUSH1 0x1 SWAP1 SUB SWAP1 DUP2 PUSH2 0x81C JUMPI SWAP1 POP JUMPDEST POP SWAP1 POP PUSH1 0x0 JUMPDEST PUSH1 0x6 DUP1 SLOAD SWAP1 POP DUP2 LT ISZERO PUSH2 0x961 JUMPI PUSH1 0x40 MLOAD DUP1 PUSH1 0x40 ADD PUSH1 0x40 MSTORE DUP1 PUSH1 0x6 DUP4 DUP2 SLOAD DUP2 LT PUSH2 0x869 JUMPI PUSH2 0x868 PUSH2 0x2422 JUMP JUMPDEST JUMPDEST SWAP1 PUSH1 0x0 MSTORE PUSH1 0x20 PUSH1 0x0 KECCAK256 ADD PUSH1 0x0 SWAP1 SLOAD SWAP1 PUSH2 0x100 EXP SWAP1 DIV PUSH20 0xFFFFFFFFFFFFFFFFFFFFFFFFFFFFFFFFFFFFFFFF AND PUSH20 0xFFFFFFFFFFFFFFFFFFFFFFFFFFFFFFFFFFFFFFFF AND DUP2 MSTORE PUSH1 0x20 ADD PUSH1 0x5 PUSH1 0x0 PUSH1 0x6 DUP6 DUP2 SLOAD DUP2 LT PUSH2 0x8C7 JUMPI PUSH2 0x8C6 PUSH2 0x2422 JUMP JUMPDEST JUMPDEST SWAP1 PUSH1 0x0 MSTORE PUSH1 0x20 PUSH1 0x0 KECCAK256 ADD PUSH1 0x0 SWAP1 SLOAD SWAP1 PUSH2 0x100 EXP SWAP1 DIV PUSH20 0xFFFFFFFFFFFFFFFFFFFFFFFFFFFFFFFFFFFFFFFF AND PUSH20 0xFFFFFFFFFFFFFFFFFFFFFFFFFFFFFFFFFFFFFFFF AND PUSH20 0xFFFFFFFFFFFFFFFFFFFFFFFFFFFFFFFFFFFFFFFF AND DUP2 MSTORE PUSH1 0x20 ADD SWAP1 DUP2 MSTORE PUSH1 0x20 ADD PUSH1 0x0 KECCAK256 SLOAD DUP2 MSTORE POP DUP3 DUP3 DUP2 MLOAD DUP2 LT PUSH2 0x943 JUMPI PUSH2 0x942 PUSH2 0x2422 JUMP JUMPDEST JUMPDEST PUSH1 0x20 MUL PUSH1 0x20 ADD ADD DUP2 SWAP1 MSTORE POP DUP1 DUP1 PUSH2 0x959 SWAP1 PUSH2 0x2480 JUMP JUMPDEST SWAP2 POP POP PUSH2 0x83D JUMP JUMPDEST POP PUSH1 0x40 MLOAD DUP1 PUSH1 0xC0 ADD PUSH1 0x40 MSTORE DUP1 PUSH1 0x1 SLOAD DUP2 MSTORE PUSH1 0x20 ADD PUSH1 0x2 SLOAD DUP2 MSTORE PUSH1 0x20 ADD PUSH1 0x3 SLOAD DUP2 MSTORE PUSH1 0x20 ADD DUP3 DUP2 MSTORE PUSH1 0x20 ADD PUSH1 0x7 SLOAD DUP2 MSTORE PUSH1 0x20 ADD DUP4 DUP2 MSTORE POP SWAP3 POP POP POP SWAP1 JUMP JUMPDEST PUSH1 0x0 PUSH1 0x60 PUSH1 0x0 DUP1 PUSH1 0x2 DUP2 GT ISZERO PUSH2 0x9B7 JUMPI PUSH2 0x9B6 PUSH2 0x22E6 JUMP JUMPDEST JUMPDEST PUSH1 0x8 PUSH1 0x0 SWAP1 SLOAD SWAP1 PUSH2 0x100 EXP SWAP1 DIV PUSH1 0xFF AND PUSH1 0x2 DUP2 GT ISZERO PUSH2 0x9D9 JUMPI PUSH2 0x9D8 PUSH2 0x22E6 JUMP JUMPDEST JUMPDEST EQ DUP1 ISZERO PUSH2 0x9F4 JUMPI POP PUSH1 0x7 SLOAD PUSH2 0x12C TIMESTAMP PUSH2 0x9F2 SWAP2 SWAP1 PUSH2 0x24C8 JUMP JUMPDEST GT JUMPDEST SWAP1 POP DUP1 ISZERO PUSH2 0xA54 JUMPI PUSH1 0x2 PUSH1 0x8 PUSH1 0x0 PUSH2 0x100 EXP DUP2 SLOAD DUP2 PUSH1 0xFF MUL NOT AND SWAP1 DUP4 PUSH1 0x2 DUP2 GT ISZERO PUSH2 0xA22 JUMPI PUSH2 0xA21 PUSH2 0x22E6 JUMP JUMPDEST JUMPDEST MUL OR SWAP1 SSTORE POP PUSH32 0xCC6032347CC2BE37F56C46FF482AFCF501EB1D147838857E117FE49234B1F12E PUSH1 0x40 MLOAD PUSH1 0x40 MLOAD DUP1 SWAP2 SUB SWAP1 LOG1 JUMPDEST PUSH32 0x1F0C74A6ED90B1A7BF068275BBCD025D930B08A7BE83BAAE85787F9A5AC624C7 TIMESTAMP PUSH1 0x7 SLOAD PUSH1 0x40 MLOAD PUSH2 0xA87 SWAP3 SWAP2 SWAP1 PUSH2 0x24FC JUMP JUMPDEST PUSH1 0x40 MLOAD DUP1 SWAP2 SUB SWAP1 LOG1 PUSH1 0x2 DUP1 DUP2 GT ISZERO PUSH2 0xAA2 JUMPI PUSH2 0xAA1 PUSH2 0x22E6 JUMP JUMPDEST JUMPDEST PUSH1 0x8 PUSH1 0x0 SWAP1 SLOAD SWAP1 PUSH2 0x100 EXP SWAP1 DIV PUSH1 0xFF AND PUSH1 0x2 DUP2 GT ISZERO PUSH2 0xAC4 JUMPI PUSH2 0xAC3 PUSH2 0x22E6 JUMP JUMPDEST JUMPDEST EQ DUP1 ISZERO PUSH2 0xAD3 JUMPI POP PUSH1 0x7 SLOAD TIMESTAMP LT ISZERO JUMPDEST SWAP3 POP POP SWAP2 POP SWAP2 JUMP JUMPDEST PUSH2 0xAE3 PUSH2 0x161B JUMP JUMPDEST PUSH1 0x1 PUSH1 0x8 PUSH1 0x0 PUSH2 0x100 EXP DUP2 SLOAD DUP2 PUSH1 0xFF MUL NOT AND SWAP1 DUP4 PUSH1 0x2 DUP2 GT ISZERO PUSH2 0xB09 JUMPI PUSH2 0xB08 PUSH2 0x22E6 JUMP JUMPDEST JUMPDEST MUL OR SWAP1 SSTORE POP PUSH1 0x0 PUSH8 0xFFFFFFFFFFFFFFFF DUP2 GT ISZERO PUSH2 0xB29 JUMPI PUSH2 0xB28 PUSH2 0x1C45 JUMP JUMPDEST JUMPDEST PUSH1 0x40 MLOAD SWAP1 DUP1 DUP3 MSTORE DUP1 PUSH1 0x20 MUL PUSH1 0x20 ADD DUP3 ADD PUSH1 0x40 MSTORE DUP1 ISZERO PUSH2 0xB57 JUMPI DUP2 PUSH1 0x20 ADD PUSH1 0x20 DUP3 MUL DUP1 CALLDATASIZE DUP4 CALLDATACOPY DUP1 DUP3 ADD SWAP2 POP POP SWAP1 POP JUMPDEST POP PUSH1 0x4 SWAP1 DUP1 MLOAD SWAP1 PUSH1 0x20 ADD SWAP1 PUSH2 0xB6D SWAP3 SWAP2 SWAP1 PUSH2 0x19FF JUMP JUMPDEST POP PUSH32 0xFC2B180437972A94A98D643B705025C6263C595CCE057CC3D910384B8D1D210C PUSH1 0x40 MLOAD PUSH1 0x40 MLOAD DUP1 SWAP2 SUB SWAP1 LOG1 JUMP JUMPDEST PUSH2 0xBA4 PUSH2 0x161B JUMP JUMPDEST PUSH2 0xBAE PUSH1 0x0 PUSH2 0x1699 JUMP JUMPDEST JUMP JUMPDEST PUSH2 0xBB8 PUSH2 0x161B JUMP JUMPDEST PUSH1 0x0 PUSH32 0x0 PUSH20 0xFFFFFFFFFFFFFFFFFFFFFFFFFFFFFFFFFFFFFFFF AND PUSH4 0x5D3B1D30 PUSH32 0x0 PUSH32 0x0 PUSH1 0x3 PUSH32 0x0 PUSH1 0x1 PUSH1 0x40 MLOAD DUP7 PUSH4 0xFFFFFFFF AND PUSH1 0xE0 SHL DUP2 MSTORE PUSH1 0x4 ADD PUSH2 0xC7D SWAP6 SWAP5 SWAP4 SWAP3 SWAP2 SWAP1 PUSH2 0x238D JUMP JUMPDEST PUSH1 0x20 PUSH1 0x40 MLOAD DUP1 DUP4 SUB DUP2 PUSH1 0x0 DUP8 GAS CALL ISZERO DUP1 ISZERO PUSH2 0xC9C JUMPI RETURNDATASIZE PUSH1 0x0 DUP1 RETURNDATACOPY RETURNDATASIZE PUSH1 0x0 REVERT JUMPDEST POP POP POP POP PUSH1 0x40 MLOAD RETURNDATASIZE PUSH1 0x1F NOT PUSH1 0x1F DUP3 ADD AND DUP3 ADD DUP1 PUSH1 0x40 MSTORE POP DUP2 ADD SWAP1 PUSH2 0xCC0 SWAP2 SWAP1 PUSH2 0x23F5 JUMP JUMPDEST SWAP1 POP DUP1 PUSH32 0xFF4D9122B4213FF3EE8322521D6BC1397AD727D4563E02F00B3346CF834FE075 PUSH1 0x40 MLOAD PUSH1 0x40 MLOAD DUP1 SWAP2 SUB SWAP1 LOG2 POP JUMP JUMPDEST PUSH1 0x0 DUP1 PUSH1 0x0 SWAP1 SLOAD SWAP1 PUSH2 0x100 EXP SWAP1 DIV PUSH20 0xFFFFFFFFFFFFFFFFFFFFFFFFFFFFFFFFFFFFFFFF AND SWAP1 POP SWAP1 JUMP JUMPDEST PUSH1 0x0 PUSH1 0x2 DUP2 GT ISZERO PUSH2 0xD2F JUMPI PUSH2 0xD2E PUSH2 0x22E6 JUMP JUMPDEST JUMPDEST PUSH1 0x8 PUSH1 0x0 SWAP1 SLOAD SWAP1 PUSH2 0x100 EXP SWAP1 DIV PUSH1 0xFF AND PUSH1 0x2 DUP2 GT ISZERO PUSH2 0xD51 JUMPI PUSH2 0xD50 PUSH2 0x22E6 JUMP JUMPDEST JUMPDEST EQ PUSH2 0xD88 JUMPI PUSH1 0x40 MLOAD PUSH32 0x68E3D0E600000000000000000000000000000000000000000000000000000000 DUP2 MSTORE PUSH1 0x4 ADD PUSH1 0x40 MLOAD DUP1 SWAP2 SUB SWAP1 REVERT JUMPDEST PUSH1 0x1 SLOAD CALLVALUE LT ISZERO PUSH2 0xDC4 JUMPI PUSH1 0x40 MLOAD PUSH32 0x3B82066900000000000000000000000000000000000000000000000000000000 DUP2 MSTORE PUSH1 0x4 ADD PUSH1 0x40 MLOAD DUP1 SWAP2 SUB SWAP1 REVERT JUMPDEST PUSH1 0x0 PUSH1 0x1 SLOAD CALLVALUE PUSH2 0xDD4 SWAP2 SWAP1 PUSH2 0x2554 JUMP JUMPDEST SWAP1 POP DUP1 PUSH1 0x9 PUSH1 0x0 DUP3 DUP3 SLOAD PUSH2 0xDE8 SWAP2 SWAP1 PUSH2 0x24C8 JUMP JUMPDEST SWAP3 POP POP DUP2 SWAP1 SSTORE POP PUSH1 0x0 JUMPDEST DUP2 DUP2 LT ISZERO PUSH2 0xE70 JUMPI PUSH1 0x4 CALLER SWAP1 DUP1 PUSH1 0x1 DUP2 SLOAD ADD DUP1 DUP3 SSTORE DUP1 SWAP2 POP POP PUSH1 0x1 SWAP1 SUB SWAP1 PUSH1 0x0 MSTORE PUSH1 0x20 PUSH1 0x0 KECCAK256 ADD PUSH1 0x0 SWAP1 SWAP2 SWAP1 SWAP2 SWAP1 SWAP2 PUSH2 0x100 EXP DUP2 SLOAD DUP2 PUSH20 0xFFFFFFFFFFFFFFFFFFFFFFFFFFFFFFFFFFFFFFFF MUL NOT AND SWAP1 DUP4 PUSH20 0xFFFFFFFFFFFFFFFFFFFFFFFFFFFFFFFFFFFFFFFF AND MUL OR SWAP1 SSTORE POP DUP1 DUP1 PUSH2 0xE68 SWAP1 PUSH2 0x2480 JUMP JUMPDEST SWAP2 POP POP PUSH2 0xDF2 JUMP JUMPDEST POP PUSH1 0x0 PUSH1 0x5 PUSH1 0x0 CALLER PUSH20 0xFFFFFFFFFFFFFFFFFFFFFFFFFFFFFFFFFFFFFFFF AND PUSH20 0xFFFFFFFFFFFFFFFFFFFFFFFFFFFFFFFFFFFFFFFF AND DUP2 MSTORE PUSH1 0x20 ADD SWAP1 DUP2 MSTORE PUSH1 0x20 ADD PUSH1 0x0 KECCAK256 SLOAD SUB PUSH2 0xF1C JUMPI PUSH1 0x6 CALLER SWAP1 DUP1 PUSH1 0x1 DUP2 SLOAD ADD DUP1 DUP3 SSTORE DUP1 SWAP2 POP POP PUSH1 0x1 SWAP1 SUB SWAP1 PUSH1 0x0 MSTORE PUSH1 0x20 PUSH1 0x0 KECCAK256 ADD PUSH1 0x0 SWAP1 SWAP2 SWAP1 SWAP2 SWAP1 SWAP2 PUSH2 0x100 EXP DUP2 SLOAD DUP2 PUSH20 0xFFFFFFFFFFFFFFFFFFFFFFFFFFFFFFFFFFFFFFFF MUL NOT AND SWAP1 DUP4 PUSH20 0xFFFFFFFFFFFFFFFFFFFFFFFFFFFFFFFFFFFFFFFF AND MUL OR SWAP1 SSTORE POP JUMPDEST DUP1 PUSH1 0x5 PUSH1 0x0 CALLER PUSH20 0xFFFFFFFFFFFFFFFFFFFFFFFFFFFFFFFFFFFFFFFF AND PUSH20 0xFFFFFFFFFFFFFFFFFFFFFFFFFFFFFFFFFFFFFFFF AND DUP2 MSTORE PUSH1 0x20 ADD SWAP1 DUP2 MSTORE PUSH1 0x20 ADD PUSH1 0x0 KECCAK256 PUSH1 0x0 DUP3 DUP3 SLOAD PUSH2 0xF6B SWAP2 SWAP1 PUSH2 0x24C8 JUMP JUMPDEST SWAP3 POP POP DUP2 SWAP1 SSTORE POP PUSH32 0xC28711C8DCC0CB3D25732E13809D1D8C2640669A0A3FB4F7729810A9CAAFFDFF CALLER DUP3 PUSH1 0x40 MLOAD PUSH2 0xFA3 SWAP3 SWAP2 SWAP1 PUSH2 0x2585 JUMP JUMPDEST PUSH1 0x40 MLOAD DUP1 SWAP2 SUB SWAP1 LOG1 POP JUMP JUMPDEST PUSH2 0xFB6 PUSH2 0x161B JUMP JUMPDEST PUSH1 0x2 DUP1 DUP2 GT ISZERO PUSH2 0xFC9 JUMPI PUSH2 0xFC8 PUSH2 0x22E6 JUMP JUMPDEST JUMPDEST PUSH1 0x8 PUSH1 0x0 SWAP1 SLOAD SWAP1 PUSH2 0x100 EXP SWAP1 DIV PUSH1 0xFF AND PUSH1 0x2 DUP2 GT ISZERO PUSH2 0xFEB JUMPI PUSH2 0xFEA PUSH2 0x22E6 JUMP JUMPDEST JUMPDEST EQ PUSH2 0x1022 JUMPI PUSH1 0x40 MLOAD PUSH32 0x7901144300000000000000000000000000000000000000000000000000000000 DUP2 MSTORE PUSH1 0x4 ADD PUSH1 0x40 MLOAD DUP1 SWAP2 SUB SWAP1 REVERT JUMPDEST PUSH1 0x0 PUSH1 0x2 PUSH1 0x4 DUP1 SLOAD SWAP1 POP PUSH2 0x1036 SWAP2 SWAP1 PUSH2 0x2554 JUMP JUMPDEST SWAP1 POP PUSH1 0x0 PUSH1 0x4 DUP3 DUP2 SLOAD DUP2 LT PUSH2 0x104E JUMPI PUSH2 0x104D PUSH2 0x2422 JUMP JUMPDEST JUMPDEST SWAP1 PUSH1 0x0 MSTORE PUSH1 0x20 PUSH1 0x0 KECCAK256 ADD PUSH1 0x0 SWAP1 SLOAD SWAP1 PUSH2 0x100 EXP SWAP1 DIV PUSH20 0xFFFFFFFFFFFFFFFFFFFFFFFFFFFFFFFFFFFFFFFF AND SWAP1 POP PUSH1 0x0 PUSH1 0x64 PUSH1 0x5A SELFBALANCE PUSH2 0x108C SWAP2 SWAP1 PUSH2 0x25AE JUMP JUMPDEST PUSH2 0x1096 SWAP2 SWAP1 PUSH2 0x2554 JUMP JUMPDEST SWAP1 POP PUSH1 0x0 DUP3 PUSH20 0xFFFFFFFFFFFFFFFFFFFFFFFFFFFFFFFFFFFFFFFF AND DUP3 PUSH1 0x40 MLOAD PUSH2 0x10BE SWAP1 PUSH2 0x2621 JUMP JUMPDEST PUSH1 0x0 PUSH1 0x40 MLOAD DUP1 DUP4 SUB DUP2 DUP6 DUP8 GAS CALL SWAP3 POP POP POP RETURNDATASIZE DUP1 PUSH1 0x0 DUP2 EQ PUSH2 0x10FB JUMPI PUSH1 0x40 MLOAD SWAP2 POP PUSH1 0x1F NOT PUSH1 0x3F RETURNDATASIZE ADD AND DUP3 ADD PUSH1 0x40 MSTORE RETURNDATASIZE DUP3 MSTORE RETURNDATASIZE PUSH1 0x0 PUSH1 0x20 DUP5 ADD RETURNDATACOPY PUSH2 0x1100 JUMP JUMPDEST PUSH1 0x60 SWAP2 POP JUMPDEST POP POP SWAP1 POP PUSH1 0x0 PUSH1 0xA PUSH1 0x0 SWAP1 SLOAD SWAP1 PUSH2 0x100 EXP SWAP1 DIV PUSH20 0xFFFFFFFFFFFFFFFFFFFFFFFFFFFFFFFFFFFFFFFF AND PUSH20 0xFFFFFFFFFFFFFFFFFFFFFFFFFFFFFFFFFFFFFFFF AND SELFBALANCE PUSH1 0x40 MLOAD PUSH2 0x114C SWAP1 PUSH2 0x2621 JUMP JUMPDEST PUSH1 0x0 PUSH1 0x40 MLOAD DUP1 DUP4 SUB DUP2 DUP6 DUP8 GAS CALL SWAP3 POP POP POP RETURNDATASIZE DUP1 PUSH1 0x0 DUP2 EQ PUSH2 0x1189 JUMPI PUSH1 0x40 MLOAD SWAP2 POP PUSH1 0x1F NOT PUSH1 0x3F RETURNDATASIZE ADD AND DUP3 ADD PUSH1 0x40 MSTORE RETURNDATASIZE DUP3 MSTORE RETURNDATASIZE PUSH1 0x0 PUSH1 0x20 DUP5 ADD RETURNDATACOPY PUSH2 0x118E JUMP JUMPDEST PUSH1 0x60 SWAP2 POP JUMPDEST POP POP SWAP1 POP DUP4 PUSH20 0xFFFFFFFFFFFFFFFFFFFFFFFFFFFFFFFFFFFFFFFF AND PUSH32 0xC5D1E2A43E1052756E222065802CB80A029BFAF7045B3DF42C5C87B92E48DE41 DUP5 PUSH1 0x40 MLOAD PUSH2 0x11D8 SWAP2 SWAP1 PUSH2 0x1BE8 JUMP JUMPDEST PUSH1 0x40 MLOAD DUP1 SWAP2 SUB SWAP1 LOG2 DUP2 ISZERO DUP1 PUSH2 0x11EB JUMPI POP DUP1 ISZERO JUMPDEST ISZERO PUSH2 0x1222 JUMPI PUSH1 0x40 MLOAD PUSH32 0xE88A1FA000000000000000000000000000000000000000000000000000000000 DUP2 MSTORE PUSH1 0x4 ADD PUSH1 0x40 MLOAD DUP1 SWAP2 SUB SWAP1 REVERT JUMPDEST PUSH2 0x122A PUSH2 0x175D JUMP JUMPDEST POP POP POP POP POP JUMP JUMPDEST PUSH2 0x1239 PUSH2 0x161B JUMP JUMPDEST PUSH1 0x0 PUSH1 0x2 DUP2 GT ISZERO PUSH2 0x124D JUMPI PUSH2 0x124C PUSH2 0x22E6 JUMP JUMPDEST JUMPDEST PUSH1 0x8 PUSH1 0x0 SWAP1 SLOAD SWAP1 PUSH2 0x100 EXP SWAP1 DIV PUSH1 0xFF AND PUSH1 0x2 DUP2 GT ISZERO PUSH2 0x126F JUMPI PUSH2 0x126E PUSH2 0x22E6 JUMP JUMPDEST JUMPDEST SUB PUSH2 0x12A6 JUMPI PUSH1 0x40 MLOAD PUSH32 0x7901144300000000000000000000000000000000000000000000000000000000 DUP2 MSTORE PUSH1 0x4 ADD PUSH1 0x40 MLOAD DUP1 SWAP2 SUB SWAP1 REVERT JUMPDEST DUP4 PUSH1 0x1 DUP2 SWAP1 SSTORE POP DUP3 PUSH1 0x2 DUP2 SWAP1 SSTORE POP DUP2 PUSH1 0x3 DUP2 SWAP1 SSTORE POP PUSH1 0x3C DUP2 PUSH2 0x12C8 SWAP2 SWAP1 PUSH2 0x25AE JUMP JUMPDEST TIMESTAMP PUSH2 0x12D3 SWAP2 SWAP1 PUSH2 0x24C8 JUMP JUMPDEST PUSH1 0x7 DUP2 SWAP1 SSTORE POP PUSH1 0x0 PUSH1 0x8 PUSH1 0x0 PUSH2 0x100 EXP DUP2 SLOAD DUP2 PUSH1 0xFF MUL NOT AND SWAP1 DUP4 PUSH1 0x2 DUP2 GT ISZERO PUSH2 0x12FF JUMPI PUSH2 0x12FE PUSH2 0x22E6 JUMP JUMPDEST JUMPDEST MUL OR SWAP1 SSTORE POP PUSH32 0xD029C7C68D943F92286A7825FA6AA2DEEFA1EEE46CEE6C91B7E483FD06D27BAF PUSH1 0x40 MLOAD PUSH1 0x40 MLOAD DUP1 SWAP2 SUB SWAP1 LOG1 POP POP POP POP JUMP JUMPDEST PUSH1 0x9 SLOAD DUP2 JUMP JUMPDEST PUSH1 0x1 SLOAD DUP2 JUMP JUMPDEST PUSH2 0x134A PUSH2 0x161B JUMP JUMPDEST PUSH1 0x0 PUSH20 0xFFFFFFFFFFFFFFFFFFFFFFFFFFFFFFFFFFFFFFFF AND DUP2 PUSH20 0xFFFFFFFFFFFFFFFFFFFFFFFFFFFFFFFFFFFFFFFF AND SUB PUSH2 0x13B9 JUMPI PUSH1 0x40 MLOAD PUSH32 0x8C379A000000000000000000000000000000000000000000000000000000000 DUP2 MSTORE PUSH1 0x4 ADD PUSH2 0x13B0 SWAP1 PUSH2 0x26A8 JUMP JUMPDEST PUSH1 0x40 MLOAD DUP1 SWAP2 SUB SWAP1 REVERT JUMPDEST PUSH2 0x13C2 DUP2 PUSH2 0x1699 JUMP JUMPDEST POP JUMP JUMPDEST PUSH1 0x1 PUSH1 0x8 PUSH1 0x0 PUSH2 0x100 EXP DUP2 SLOAD DUP2 PUSH1 0xFF MUL NOT AND SWAP1 DUP4 PUSH1 0x2 DUP2 GT ISZERO PUSH2 0x13EB JUMPI PUSH2 0x13EA PUSH2 0x22E6 JUMP JUMPDEST JUMPDEST MUL OR SWAP1 SSTORE POP PUSH1 0x0 PUSH1 0x4 DUP1 SLOAD SWAP1 POP DUP3 PUSH1 0x0 DUP2 MLOAD DUP2 LT PUSH2 0x140C JUMPI PUSH2 0x140B PUSH2 0x2422 JUMP JUMPDEST JUMPDEST PUSH1 0x20 MUL PUSH1 0x20 ADD ADD MLOAD PUSH2 0x141E SWAP2 SWAP1 PUSH2 0x26C8 JUMP JUMPDEST SWAP1 POP PUSH1 0x0 PUSH1 0x4 DUP3 DUP2 SLOAD DUP2 LT PUSH2 0x1436 JUMPI PUSH2 0x1435 PUSH2 0x2422 JUMP JUMPDEST JUMPDEST SWAP1 PUSH1 0x0 MSTORE PUSH1 0x20 PUSH1 0x0 KECCAK256 ADD PUSH1 0x0 SWAP1 SLOAD SWAP1 PUSH2 0x100 EXP SWAP1 DIV PUSH20 0xFFFFFFFFFFFFFFFFFFFFFFFFFFFFFFFFFFFFFFFF AND SWAP1 POP PUSH1 0x0 PUSH1 0x64 PUSH1 0x5A SELFBALANCE PUSH2 0x1474 SWAP2 SWAP1 PUSH2 0x25AE JUMP JUMPDEST PUSH2 0x147E SWAP2 SWAP1 PUSH2 0x2554 JUMP JUMPDEST SWAP1 POP PUSH1 0x0 DUP3 PUSH20 0xFFFFFFFFFFFFFFFFFFFFFFFFFFFFFFFFFFFFFFFF AND DUP3 PUSH1 0x40 MLOAD PUSH2 0x14A6 SWAP1 PUSH2 0x2621 JUMP JUMPDEST PUSH1 0x0 PUSH1 0x40 MLOAD DUP1 DUP4 SUB DUP2 DUP6 DUP8 GAS CALL SWAP3 POP POP POP RETURNDATASIZE DUP1 PUSH1 0x0 DUP2 EQ PUSH2 0x14E3 JUMPI PUSH1 0x40 MLOAD SWAP2 POP PUSH1 0x1F NOT PUSH1 0x3F RETURNDATASIZE ADD AND DUP3 ADD PUSH1 0x40 MSTORE RETURNDATASIZE DUP3 MSTORE RETURNDATASIZE PUSH1 0x0 PUSH1 0x20 DUP5 ADD RETURNDATACOPY PUSH2 0x14E8 JUMP JUMPDEST PUSH1 0x60 SWAP2 POP JUMPDEST POP POP SWAP1 POP PUSH1 0x0 PUSH1 0xA PUSH1 0x0 SWAP1 SLOAD SWAP1 PUSH2 0x100 EXP SWAP1 DIV PUSH20 0xFFFFFFFFFFFFFFFFFFFFFFFFFFFFFFFFFFFFFFFF AND PUSH20 0xFFFFFFFFFFFFFFFFFFFFFFFFFFFFFFFFFFFFFFFF AND SELFBALANCE PUSH1 0x40 MLOAD PUSH2 0x1534 SWAP1 PUSH2 0x2621 JUMP JUMPDEST PUSH1 0x0 PUSH1 0x40 MLOAD DUP1 DUP4 SUB DUP2 DUP6 DUP8 GAS CALL SWAP3 POP POP POP RETURNDATASIZE DUP1 PUSH1 0x0 DUP2 EQ PUSH2 0x1571 JUMPI PUSH1 0x40 MLOAD SWAP2 POP PUSH1 0x1F NOT PUSH1 0x3F RETURNDATASIZE ADD AND DUP3 ADD PUSH1 0x40 MSTORE RETURNDATASIZE DUP3 MSTORE RETURNDATASIZE PUSH1 0x0 PUSH1 0x20 DUP5 ADD RETURNDATACOPY PUSH2 0x1576 JUMP JUMPDEST PUSH1 0x60 SWAP2 POP JUMPDEST POP POP SWAP1 POP DUP4 PUSH20 0xFFFFFFFFFFFFFFFFFFFFFFFFFFFFFFFFFFFFFFFF AND PUSH32 0xC5D1E2A43E1052756E222065802CB80A029BFAF7045B3DF42C5C87B92E48DE41 DUP5 PUSH1 0x40 MLOAD PUSH2 0x15C0 SWAP2 SWAP1 PUSH2 0x1BE8 JUMP JUMPDEST PUSH1 0x40 MLOAD DUP1 SWAP2 SUB SWAP1 LOG2 PUSH2 0x15D0 PUSH2 0x175D JUMP JUMPDEST DUP2 ISZERO DUP1 PUSH2 0x15DB JUMPI POP DUP1 ISZERO JUMPDEST ISZERO PUSH2 0x1612 JUMPI PUSH1 0x40 MLOAD PUSH32 0xE88A1FA000000000000000000000000000000000000000000000000000000000 DUP2 MSTORE PUSH1 0x4 ADD PUSH1 0x40 MLOAD DUP1 SWAP2 SUB SWAP1 REVERT JUMPDEST POP POP POP POP POP POP POP JUMP JUMPDEST PUSH2 0x1623 PUSH2 0x1991 JUMP JUMPDEST PUSH20 0xFFFFFFFFFFFFFFFFFFFFFFFFFFFFFFFFFFFFFFFF AND PUSH2 0x1641 PUSH2 0xCF2 JUMP JUMPDEST PUSH20 0xFFFFFFFFFFFFFFFFFFFFFFFFFFFFFFFFFFFFFFFF AND EQ PUSH2 0x1697 JUMPI PUSH1 0x40 MLOAD PUSH32 0x8C379A000000000000000000000000000000000000000000000000000000000 DUP2 MSTORE PUSH1 0x4 ADD PUSH2 0x168E SWAP1 PUSH2 0x2745 JUMP JUMPDEST PUSH1 0x40 MLOAD DUP1 SWAP2 SUB SWAP1 REVERT JUMPDEST JUMP JUMPDEST PUSH1 0x0 DUP1 PUSH1 0x0 SWAP1 SLOAD SWAP1 PUSH2 0x100 EXP SWAP1 DIV PUSH20 0xFFFFFFFFFFFFFFFFFFFFFFFFFFFFFFFFFFFFFFFF AND SWAP1 POP DUP2 PUSH1 0x0 DUP1 PUSH2 0x100 EXP DUP2 SLOAD DUP2 PUSH20 0xFFFFFFFFFFFFFFFFFFFFFFFFFFFFFFFFFFFFFFFF MUL NOT AND SWAP1 DUP4 PUSH20 0xFFFFFFFFFFFFFFFFFFFFFFFFFFFFFFFFFFFFFFFF AND MUL OR SWAP1 SSTORE POP DUP2 PUSH20 0xFFFFFFFFFFFFFFFFFFFFFFFFFFFFFFFFFFFFFFFF AND DUP2 PUSH20 0xFFFFFFFFFFFFFFFFFFFFFFFFFFFFFFFFFFFFFFFF AND PUSH32 0x8BE0079C531659141344CD1FD0A4F28419497F9722A3DAAFE3B4186F6B6457E0 PUSH1 0x40 MLOAD PUSH1 0x40 MLOAD DUP1 SWAP2 SUB SWAP1 LOG3 POP POP JUMP JUMPDEST PUSH1 0x0 PUSH1 0x6 DUP1 SLOAD DUP1 PUSH1 0x20 MUL PUSH1 0x20 ADD PUSH1 0x40 MLOAD SWAP1 DUP2 ADD PUSH1 0x40 MSTORE DUP1 SWAP3 SWAP2 SWAP1 DUP2 DUP2 MSTORE PUSH1 0x20 ADD DUP3 DUP1 SLOAD DUP1 ISZERO PUSH2 0x17E1 JUMPI PUSH1 0x20 MUL DUP3 ADD SWAP2 SWAP1 PUSH1 0x0 MSTORE PUSH1 0x20 PUSH1 0x0 KECCAK256 SWAP1 JUMPDEST DUP2 PUSH1 0x0 SWAP1 SLOAD SWAP1 PUSH2 0x100 EXP SWAP1 DIV PUSH20 0xFFFFFFFFFFFFFFFFFFFFFFFFFFFFFFFFFFFFFFFF AND PUSH20 0xFFFFFFFFFFFFFFFFFFFFFFFFFFFFFFFFFFFFFFFF AND DUP2 MSTORE PUSH1 0x20 ADD SWAP1 PUSH1 0x1 ADD SWAP1 DUP1 DUP4 GT PUSH2 0x1797 JUMPI JUMPDEST POP POP POP POP POP SWAP1 POP PUSH1 0x0 PUSH8 0xFFFFFFFFFFFFFFFF DUP2 GT ISZERO PUSH2 0x1803 JUMPI PUSH2 0x1802 PUSH2 0x1C45 JUMP JUMPDEST JUMPDEST PUSH1 0x40 MLOAD SWAP1 DUP1 DUP3 MSTORE DUP1 PUSH1 0x20 MUL PUSH1 0x20 ADD DUP3 ADD PUSH1 0x40 MSTORE DUP1 ISZERO PUSH2 0x1831 JUMPI DUP2 PUSH1 0x20 ADD PUSH1 0x20 DUP3 MUL DUP1 CALLDATASIZE DUP4 CALLDATACOPY DUP1 DUP3 ADD SWAP2 POP POP SWAP1 POP JUMPDEST POP PUSH1 0x4 SWAP1 DUP1 MLOAD SWAP1 PUSH1 0x20 ADD SWAP1 PUSH2 0x1847 SWAP3 SWAP2 SWAP1 PUSH2 0x19FF JUMP JUMPDEST POP PUSH1 0x0 JUMPDEST DUP2 MLOAD DUP2 LT ISZERO PUSH2 0x18C6 JUMPI PUSH1 0x0 PUSH1 0x5 PUSH1 0x0 DUP5 DUP5 DUP2 MLOAD DUP2 LT PUSH2 0x186D JUMPI PUSH2 0x186C PUSH2 0x2422 JUMP JUMPDEST JUMPDEST PUSH1 0x20 MUL PUSH1 0x20 ADD ADD MLOAD PUSH20 0xFFFFFFFFFFFFFFFFFFFFFFFFFFFFFFFFFFFFFFFF AND PUSH20 0xFFFFFFFFFFFFFFFFFFFFFFFFFFFFFFFFFFFFFFFF AND DUP2 MSTORE PUSH1 0x20 ADD SWAP1 DUP2 MSTORE PUSH1 0x20 ADD PUSH1 0x0 KECCAK256 DUP2 SWAP1 SSTORE POP DUP1 DUP1 PUSH2 0x18BE SWAP1 PUSH2 0x2480 JUMP JUMPDEST SWAP2 POP POP PUSH2 0x184B JUMP JUMPDEST POP PUSH1 0x0 PUSH8 0xFFFFFFFFFFFFFFFF DUP2 GT ISZERO PUSH2 0x18E2 JUMPI PUSH2 0x18E1 PUSH2 0x1C45 JUMP JUMPDEST JUMPDEST PUSH1 0x40 MLOAD SWAP1 DUP1 DUP3 MSTORE DUP1 PUSH1 0x20 MUL PUSH1 0x20 ADD DUP3 ADD PUSH1 0x40 MSTORE DUP1 ISZERO PUSH2 0x1910 JUMPI DUP2 PUSH1 0x20 ADD PUSH1 0x20 DUP3 MUL DUP1 CALLDATASIZE DUP4 CALLDATACOPY DUP1 DUP3 ADD SWAP2 POP POP SWAP1 POP JUMPDEST POP PUSH1 0x6 SWAP1 DUP1 MLOAD SWAP1 PUSH1 0x20 ADD SWAP1 PUSH2 0x1926 SWAP3 SWAP2 SWAP1 PUSH2 0x1A89 JUMP JUMPDEST POP PUSH1 0x1 PUSH1 0x8 PUSH1 0x0 PUSH2 0x100 EXP DUP2 SLOAD DUP2 PUSH1 0xFF MUL NOT AND SWAP1 DUP4 PUSH1 0x2 DUP2 GT ISZERO PUSH2 0x194D JUMPI PUSH2 0x194C PUSH2 0x22E6 JUMP JUMPDEST JUMPDEST MUL OR SWAP1 SSTORE POP PUSH1 0x0 PUSH1 0x2 DUP2 SWAP1 SSTORE POP PUSH1 0x0 PUSH1 0x3 DUP2 SWAP1 SSTORE POP PUSH32 0xFC2B180437972A94A98D643B705025C6263C595CCE057CC3D910384B8D1D210C PUSH1 0x40 MLOAD PUSH1 0x40 MLOAD DUP1 SWAP2 SUB SWAP1 LOG1 POP JUMP JUMPDEST PUSH1 0x0 CALLER SWAP1 POP SWAP1 JUMP JUMPDEST PUSH1 0x40 MLOAD DUP1 PUSH1 0xC0 ADD PUSH1 0x40 MSTORE DUP1 PUSH1 0x0 DUP2 MSTORE PUSH1 0x20 ADD PUSH1 0x0 DUP2 MSTORE PUSH1 0x20 ADD PUSH1 0x0 DUP2 MSTORE PUSH1 0x20 ADD PUSH1 0x60 DUP2 MSTORE PUSH1 0x20 ADD PUSH1 0x0 DUP2 MSTORE PUSH1 0x20 ADD PUSH1 0x60 DUP2 MSTORE POP SWAP1 JUMP JUMPDEST PUSH1 0x40 MLOAD DUP1 PUSH1 0x40 ADD PUSH1 0x40 MSTORE DUP1 PUSH1 0x0 PUSH20 0xFFFFFFFFFFFFFFFFFFFFFFFFFFFFFFFFFFFFFFFF AND DUP2 MSTORE PUSH1 0x20 ADD PUSH1 0x0 DUP2 MSTORE POP SWAP1 JUMP JUMPDEST DUP3 DUP1 SLOAD DUP3 DUP3 SSTORE SWAP1 PUSH1 0x0 MSTORE PUSH1 0x20 PUSH1 0x0 KECCAK256 SWAP1 DUP2 ADD SWAP3 DUP3 ISZERO PUSH2 0x1A78 JUMPI SWAP2 PUSH1 0x20 MUL DUP3 ADD JUMPDEST DUP3 DUP2 GT ISZERO PUSH2 0x1A77 JUMPI DUP3 MLOAD DUP3 PUSH1 0x0 PUSH2 0x100 EXP DUP2 SLOAD DUP2 PUSH20 0xFFFFFFFFFFFFFFFFFFFFFFFFFFFFFFFFFFFFFFFF MUL NOT AND SWAP1 DUP4 PUSH20 0xFFFFFFFFFFFFFFFFFFFFFFFFFFFFFFFFFFFFFFFF AND MUL OR SWAP1 SSTORE POP SWAP2 PUSH1 0x20 ADD SWAP2 SWAP1 PUSH1 0x1 ADD SWAP1 PUSH2 0x1A1F JUMP JUMPDEST JUMPDEST POP SWAP1 POP PUSH2 0x1A85 SWAP2 SWAP1 PUSH2 0x1B13 JUMP JUMPDEST POP SWAP1 JUMP JUMPDEST DUP3 DUP1 SLOAD DUP3 DUP3 SSTORE SWAP1 PUSH1 0x0 MSTORE PUSH1 0x20 PUSH1 0x0 KECCAK256 SWAP1 DUP2 ADD SWAP3 DUP3 ISZERO PUSH2 0x1B02 JUMPI SWAP2 PUSH1 0x20 MUL DUP3 ADD JUMPDEST DUP3 DUP2 GT ISZERO PUSH2 0x1B01 JUMPI DUP3 MLOAD DUP3 PUSH1 0x0 PUSH2 0x100 EXP DUP2 SLOAD DUP2 PUSH20 0xFFFFFFFFFFFFFFFFFFFFFFFFFFFFFFFFFFFFFFFF MUL NOT AND SWAP1 DUP4 PUSH20 0xFFFFFFFFFFFFFFFFFFFFFFFFFFFFFFFFFFFFFFFF AND MUL OR SWAP1 SSTORE POP SWAP2 PUSH1 0x20 ADD SWAP2 SWAP1 PUSH1 0x1 ADD SWAP1 PUSH2 0x1AA9 JUMP JUMPDEST JUMPDEST POP SWAP1 POP PUSH2 0x1B0F SWAP2 SWAP1 PUSH2 0x1B13 JUMP JUMPDEST POP SWAP1 JUMP JUMPDEST JUMPDEST DUP1 DUP3 GT ISZERO PUSH2 0x1B2C JUMPI PUSH1 0x0 DUP2 PUSH1 0x0 SWAP1 SSTORE POP PUSH1 0x1 ADD PUSH2 0x1B14 JUMP JUMPDEST POP SWAP1 JUMP JUMPDEST PUSH1 0x0 PUSH1 0x40 MLOAD SWAP1 POP SWAP1 JUMP JUMPDEST PUSH1 0x0 DUP1 REVERT JUMPDEST PUSH1 0x0 DUP1 REVERT JUMPDEST PUSH1 0x0 PUSH20 0xFFFFFFFFFFFFFFFFFFFFFFFFFFFFFFFFFFFFFFFF DUP3 AND SWAP1 POP SWAP2 SWAP1 POP JUMP JUMPDEST PUSH1 0x0 PUSH2 0x1B6F DUP3 PUSH2 0x1B44 JUMP JUMPDEST SWAP1 POP SWAP2 SWAP1 POP JUMP JUMPDEST PUSH2 0x1B7F DUP2 PUSH2 0x1B64 JUMP JUMPDEST DUP2 EQ PUSH2 0x1B8A JUMPI PUSH1 0x0 DUP1 REVERT JUMPDEST POP JUMP JUMPDEST PUSH1 0x0 DUP2 CALLDATALOAD SWAP1 POP PUSH2 0x1B9C DUP2 PUSH2 0x1B76 JUMP JUMPDEST SWAP3 SWAP2 POP POP JUMP JUMPDEST PUSH1 0x0 PUSH1 0x20 DUP3 DUP5 SUB SLT ISZERO PUSH2 0x1BB8 JUMPI PUSH2 0x1BB7 PUSH2 0x1B3A JUMP JUMPDEST JUMPDEST PUSH1 0x0 PUSH2 0x1BC6 DUP5 DUP3 DUP6 ADD PUSH2 0x1B8D JUMP JUMPDEST SWAP2 POP POP SWAP3 SWAP2 POP POP JUMP JUMPDEST PUSH1 0x0 DUP2 SWAP1 POP SWAP2 SWAP1 POP JUMP JUMPDEST PUSH2 0x1BE2 DUP2 PUSH2 0x1BCF JUMP JUMPDEST DUP3 MSTORE POP POP JUMP JUMPDEST PUSH1 0x0 PUSH1 0x20 DUP3 ADD SWAP1 POP PUSH2 0x1BFD PUSH1 0x0 DUP4 ADD DUP5 PUSH2 0x1BD9 JUMP JUMPDEST SWAP3 SWAP2 POP POP JUMP JUMPDEST PUSH2 0x1C0C DUP2 PUSH2 0x1BCF JUMP JUMPDEST DUP2 EQ PUSH2 0x1C17 JUMPI PUSH1 0x0 DUP1 REVERT JUMPDEST POP JUMP JUMPDEST PUSH1 0x0 DUP2 CALLDATALOAD SWAP1 POP PUSH2 0x1C29 DUP2 PUSH2 0x1C03 JUMP JUMPDEST SWAP3 SWAP2 POP POP JUMP JUMPDEST PUSH1 0x0 DUP1 REVERT JUMPDEST PUSH1 0x0 PUSH1 0x1F NOT PUSH1 0x1F DUP4 ADD AND SWAP1 POP SWAP2 SWAP1 POP JUMP JUMPDEST PUSH32 0x4E487B7100000000000000000000000000000000000000000000000000000000 PUSH1 0x0 MSTORE PUSH1 0x41 PUSH1 0x4 MSTORE PUSH1 0x24 PUSH1 0x0 REVERT JUMPDEST PUSH2 0x1C7D DUP3 PUSH2 0x1C34 JUMP JUMPDEST DUP2 ADD DUP2 DUP2 LT PUSH8 0xFFFFFFFFFFFFFFFF DUP3 GT OR ISZERO PUSH2 0x1C9C JUMPI PUSH2 0x1C9B PUSH2 0x1C45 JUMP JUMPDEST JUMPDEST DUP1 PUSH1 0x40 MSTORE POP POP POP JUMP JUMPDEST PUSH1 0x0 PUSH2 0x1CAF PUSH2 0x1B30 JUMP JUMPDEST SWAP1 POP PUSH2 0x1CBB DUP3 DUP3 PUSH2 0x1C74 JUMP JUMPDEST SWAP2 SWAP1 POP JUMP JUMPDEST PUSH1 0x0 PUSH8 0xFFFFFFFFFFFFFFFF DUP3 GT ISZERO PUSH2 0x1CDB JUMPI PUSH2 0x1CDA PUSH2 0x1C45 JUMP JUMPDEST JUMPDEST PUSH1 0x20 DUP3 MUL SWAP1 POP PUSH1 0x20 DUP2 ADD SWAP1 POP SWAP2 SWAP1 POP JUMP JUMPDEST PUSH1 0x0 DUP1 REVERT JUMPDEST PUSH1 0x0 PUSH2 0x1D04 PUSH2 0x1CFF DUP5 PUSH2 0x1CC0 JUMP JUMPDEST PUSH2 0x1CA5 JUMP JUMPDEST SWAP1 POP DUP1 DUP4 DUP3 MSTORE PUSH1 0x20 DUP3 ADD SWAP1 POP PUSH1 0x20 DUP5 MUL DUP4 ADD DUP6 DUP2 GT ISZERO PUSH2 0x1D27 JUMPI PUSH2 0x1D26 PUSH2 0x1CEC JUMP JUMPDEST JUMPDEST DUP4 JUMPDEST DUP2 DUP2 LT ISZERO PUSH2 0x1D50 JUMPI DUP1 PUSH2 0x1D3C DUP9 DUP3 PUSH2 0x1C1A JUMP JUMPDEST DUP5 MSTORE PUSH1 0x20 DUP5 ADD SWAP4 POP POP PUSH1 0x20 DUP2 ADD SWAP1 POP PUSH2 0x1D29 JUMP JUMPDEST POP POP POP SWAP4 SWAP3 POP POP POP JUMP JUMPDEST PUSH1 0x0 DUP3 PUSH1 0x1F DUP4 ADD SLT PUSH2 0x1D6F JUMPI PUSH2 0x1D6E PUSH2 0x1C2F JUMP JUMPDEST JUMPDEST DUP2 CALLDATALOAD PUSH2 0x1D7F DUP5 DUP3 PUSH1 0x20 DUP7 ADD PUSH2 0x1CF1 JUMP JUMPDEST SWAP2 POP POP SWAP3 SWAP2 POP POP JUMP JUMPDEST PUSH1 0x0 DUP1 PUSH1 0x40 DUP4 DUP6 SUB SLT ISZERO PUSH2 0x1D9F JUMPI PUSH2 0x1D9E PUSH2 0x1B3A JUMP JUMPDEST JUMPDEST PUSH1 0x0 PUSH2 0x1DAD DUP6 DUP3 DUP7 ADD PUSH2 0x1C1A JUMP JUMPDEST SWAP3 POP POP PUSH1 0x20 DUP4 ADD CALLDATALOAD PUSH8 0xFFFFFFFFFFFFFFFF DUP2 GT ISZERO PUSH2 0x1DCE JUMPI PUSH2 0x1DCD PUSH2 0x1B3F JUMP JUMPDEST JUMPDEST PUSH2 0x1DDA DUP6 DUP3 DUP7 ADD PUSH2 0x1D5A JUMP JUMPDEST SWAP2 POP POP SWAP3 POP SWAP3 SWAP1 POP JUMP JUMPDEST PUSH1 0x0 DUP1 REVERT JUMPDEST PUSH1 0x0 PUSH8 0xFFFFFFFFFFFFFFFF DUP3 GT ISZERO PUSH2 0x1E04 JUMPI PUSH2 0x1E03 PUSH2 0x1C45 JUMP JUMPDEST JUMPDEST PUSH2 0x1E0D DUP3 PUSH2 0x1C34 JUMP JUMPDEST SWAP1 POP PUSH1 0x20 DUP2 ADD SWAP1 POP SWAP2 SWAP1 POP JUMP JUMPDEST DUP3 DUP2 DUP4 CALLDATACOPY PUSH1 0x0 DUP4 DUP4 ADD MSTORE POP POP POP JUMP JUMPDEST PUSH1 0x0 PUSH2 0x1E3C PUSH2 0x1E37 DUP5 PUSH2 0x1DE9 JUMP JUMPDEST PUSH2 0x1CA5 JUMP JUMPDEST SWAP1 POP DUP3 DUP2 MSTORE PUSH1 0x20 DUP2 ADD DUP5 DUP5 DUP5 ADD GT ISZERO PUSH2 0x1E58 JUMPI PUSH2 0x1E57 PUSH2 0x1DE4 JUMP JUMPDEST JUMPDEST PUSH2 0x1E63 DUP5 DUP3 DUP6 PUSH2 0x1E1A JUMP JUMPDEST POP SWAP4 SWAP3 POP POP POP JUMP JUMPDEST PUSH1 0x0 DUP3 PUSH1 0x1F DUP4 ADD SLT PUSH2 0x1E80 JUMPI PUSH2 0x1E7F PUSH2 0x1C2F JUMP JUMPDEST JUMPDEST DUP2 CALLDATALOAD PUSH2 0x1E90 DUP5 DUP3 PUSH1 0x20 DUP7 ADD PUSH2 0x1E29 JUMP JUMPDEST SWAP2 POP POP SWAP3 SWAP2 POP POP JUMP JUMPDEST PUSH1 0x0 PUSH1 0x20 DUP3 DUP5 SUB SLT ISZERO PUSH2 0x1EAF JUMPI PUSH2 0x1EAE PUSH2 0x1B3A JUMP JUMPDEST JUMPDEST PUSH1 0x0 DUP3 ADD CALLDATALOAD PUSH8 0xFFFFFFFFFFFFFFFF DUP2 GT ISZERO PUSH2 0x1ECD JUMPI PUSH2 0x1ECC PUSH2 0x1B3F JUMP JUMPDEST JUMPDEST PUSH2 0x1ED9 DUP5 DUP3 DUP6 ADD PUSH2 0x1E6B JUMP JUMPDEST SWAP2 POP POP SWAP3 SWAP2 POP POP JUMP JUMPDEST PUSH2 0x1EEB DUP2 PUSH2 0x1BCF JUMP JUMPDEST DUP3 MSTORE POP POP JUMP JUMPDEST PUSH1 0x0 DUP2 MLOAD SWAP1 POP SWAP2 SWAP1 POP JUMP JUMPDEST PUSH1 0x0 DUP3 DUP3 MSTORE PUSH1 0x20 DUP3 ADD SWAP1 POP SWAP3 SWAP2 POP POP JUMP JUMPDEST PUSH1 0x0 DUP2 SWAP1 POP PUSH1 0x20 DUP3 ADD SWAP1 POP SWAP2 SWAP1 POP JUMP JUMPDEST PUSH2 0x1F26 DUP2 PUSH2 0x1B64 JUMP JUMPDEST DUP3 MSTORE POP POP JUMP JUMPDEST PUSH1 0x40 DUP3 ADD PUSH1 0x0 DUP3 ADD MLOAD PUSH2 0x1F42 PUSH1 0x0 DUP6 ADD DUP3 PUSH2 0x1F1D JUMP JUMPDEST POP PUSH1 0x20 DUP3 ADD MLOAD PUSH2 0x1F55 PUSH1 0x20 DUP6 ADD DUP3 PUSH2 0x1EE2 JUMP JUMPDEST POP POP POP POP JUMP JUMPDEST PUSH1 0x0 PUSH2 0x1F67 DUP4 DUP4 PUSH2 0x1F2C JUMP JUMPDEST PUSH1 0x40 DUP4 ADD SWAP1 POP SWAP3 SWAP2 POP POP JUMP JUMPDEST PUSH1 0x0 PUSH1 0x20 DUP3 ADD SWAP1 POP SWAP2 SWAP1 POP JUMP JUMPDEST PUSH1 0x0 PUSH2 0x1F8B DUP3 PUSH2 0x1EF1 JUMP JUMPDEST PUSH2 0x1F95 DUP2 DUP6 PUSH2 0x1EFC JUMP JUMPDEST SWAP4 POP PUSH2 0x1FA0 DUP4 PUSH2 0x1F0D JUMP JUMPDEST DUP1 PUSH1 0x0 JUMPDEST DUP4 DUP2 LT ISZERO PUSH2 0x1FD1 JUMPI DUP2 MLOAD PUSH2 0x1FB8 DUP9 DUP3 PUSH2 0x1F5B JUMP JUMPDEST SWAP8 POP PUSH2 0x1FC3 DUP4 PUSH2 0x1F73 JUMP JUMPDEST SWAP3 POP POP PUSH1 0x1 DUP2 ADD SWAP1 POP PUSH2 0x1FA4 JUMP JUMPDEST POP DUP6 SWAP4 POP POP POP POP SWAP3 SWAP2 POP POP JUMP JUMPDEST PUSH1 0x0 DUP2 MLOAD SWAP1 POP SWAP2 SWAP1 POP JUMP JUMPDEST PUSH1 0x0 DUP3 DUP3 MSTORE PUSH1 0x20 DUP3 ADD SWAP1 POP SWAP3 SWAP2 POP POP JUMP JUMPDEST PUSH1 0x0 JUMPDEST DUP4 DUP2 LT ISZERO PUSH2 0x2018 JUMPI DUP1 DUP3 ADD MLOAD DUP2 DUP5 ADD MSTORE PUSH1 0x20 DUP2 ADD SWAP1 POP PUSH2 0x1FFD JUMP JUMPDEST PUSH1 0x0 DUP5 DUP5 ADD MSTORE POP POP POP POP JUMP JUMPDEST PUSH1 0x0 PUSH2 0x202F DUP3 PUSH2 0x1FDE JUMP JUMPDEST PUSH2 0x2039 DUP2 DUP6 PUSH2 0x1FE9 JUMP JUMPDEST SWAP4 POP PUSH2 0x2049 DUP2 DUP6 PUSH1 0x20 DUP7 ADD PUSH2 0x1FFA JUMP JUMPDEST PUSH2 0x2052 DUP2 PUSH2 0x1C34 JUMP JUMPDEST DUP5 ADD SWAP2 POP POP SWAP3 SWAP2 POP POP JUMP JUMPDEST PUSH1 0x0 PUSH1 0xC0 DUP4 ADD PUSH1 0x0 DUP4 ADD MLOAD PUSH2 0x2075 PUSH1 0x0 DUP7 ADD DUP3 PUSH2 0x1EE2 JUMP JUMPDEST POP PUSH1 0x20 DUP4 ADD MLOAD PUSH2 0x2088 PUSH1 0x20 DUP7 ADD DUP3 PUSH2 0x1EE2 JUMP JUMPDEST POP PUSH1 0x40 DUP4 ADD MLOAD PUSH2 0x209B PUSH1 0x40 DUP7 ADD DUP3 PUSH2 0x1EE2 JUMP JUMPDEST POP PUSH1 0x60 DUP4 ADD MLOAD DUP5 DUP3 SUB PUSH1 0x60 DUP7 ADD MSTORE PUSH2 0x20B3 DUP3 DUP3 PUSH2 0x1F80 JUMP JUMPDEST SWAP2 POP POP PUSH1 0x80 DUP4 ADD MLOAD PUSH2 0x20C8 PUSH1 0x80 DUP7 ADD DUP3 PUSH2 0x1EE2 JUMP JUMPDEST POP PUSH1 0xA0 DUP4 ADD MLOAD DUP5 DUP3 SUB PUSH1 0xA0 DUP7 ADD MSTORE PUSH2 0x20E0 DUP3 DUP3 PUSH2 0x2024 JUMP JUMPDEST SWAP2 POP POP DUP1 SWAP2 POP POP SWAP3 SWAP2 POP POP JUMP JUMPDEST PUSH1 0x0 PUSH1 0x20 DUP3 ADD SWAP1 POP DUP2 DUP2 SUB PUSH1 0x0 DUP4 ADD MSTORE PUSH2 0x2107 DUP2 DUP5 PUSH2 0x205D JUMP JUMPDEST SWAP1 POP SWAP3 SWAP2 POP POP JUMP JUMPDEST PUSH1 0x0 DUP2 ISZERO ISZERO SWAP1 POP SWAP2 SWAP1 POP JUMP JUMPDEST PUSH2 0x2124 DUP2 PUSH2 0x210F JUMP JUMPDEST DUP3 MSTORE POP POP JUMP JUMPDEST PUSH1 0x0 DUP2 MLOAD SWAP1 POP SWAP2 SWAP1 POP JUMP JUMPDEST PUSH1 0x0 DUP3 DUP3 MSTORE PUSH1 0x20 DUP3 ADD SWAP1 POP SWAP3 SWAP2 POP POP JUMP JUMPDEST PUSH1 0x0 PUSH2 0x2151 DUP3 PUSH2 0x212A JUMP JUMPDEST PUSH2 0x215B DUP2 DUP6 PUSH2 0x2135 JUMP JUMPDEST SWAP4 POP PUSH2 0x216B DUP2 DUP6 PUSH1 0x20 DUP7 ADD PUSH2 0x1FFA JUMP JUMPDEST PUSH2 0x2174 DUP2 PUSH2 0x1C34 JUMP JUMPDEST DUP5 ADD SWAP2 POP POP SWAP3 SWAP2 POP POP JUMP JUMPDEST PUSH1 0x0 PUSH1 0x40 DUP3 ADD SWAP1 POP PUSH2 0x2194 PUSH1 0x0 DUP4 ADD DUP6 PUSH2 0x211B JUMP JUMPDEST DUP2 DUP2 SUB PUSH1 0x20 DUP4 ADD MSTORE PUSH2 0x21A6 DUP2 DUP5 PUSH2 0x2146 JUMP JUMPDEST SWAP1 POP SWAP4 SWAP3 POP POP POP JUMP JUMPDEST PUSH2 0x21B8 DUP2 PUSH2 0x1B64 JUMP JUMPDEST DUP3 MSTORE POP POP JUMP JUMPDEST PUSH1 0x0 PUSH1 0x20 DUP3 ADD SWAP1 POP PUSH2 0x21D3 PUSH1 0x0 DUP4 ADD DUP5 PUSH2 0x21AF JUMP JUMPDEST SWAP3 SWAP2 POP POP JUMP JUMPDEST PUSH1 0x0 DUP1 PUSH1 0x0 DUP1 PUSH1 0x80 DUP6 DUP8 SUB SLT ISZERO PUSH2 0x21F3 JUMPI PUSH2 0x21F2 PUSH2 0x1B3A JUMP JUMPDEST JUMPDEST PUSH1 0x0 PUSH2 0x2201 DUP8 DUP3 DUP9 ADD PUSH2 0x1C1A JUMP JUMPDEST SWAP5 POP POP PUSH1 0x20 PUSH2 0x2212 DUP8 DUP3 DUP9 ADD PUSH2 0x1C1A JUMP JUMPDEST SWAP4 POP POP PUSH1 0x40 PUSH2 0x2223 DUP8 DUP3 DUP9 ADD PUSH2 0x1C1A JUMP JUMPDEST SWAP3 POP POP PUSH1 0x60 PUSH2 0x2234 DUP8 DUP3 DUP9 ADD PUSH2 0x1C1A JUMP JUMPDEST SWAP2 POP POP SWAP3 SWAP6 SWAP2 SWAP5 POP SWAP3 POP JUMP JUMPDEST PUSH1 0x0 PUSH1 0x40 DUP3 ADD SWAP1 POP PUSH2 0x2255 PUSH1 0x0 DUP4 ADD DUP6 PUSH2 0x21AF JUMP JUMPDEST PUSH2 0x2262 PUSH1 0x20 DUP4 ADD DUP5 PUSH2 0x21AF JUMP JUMPDEST SWAP4 SWAP3 POP POP POP JUMP JUMPDEST PUSH1 0x0 DUP3 DUP3 MSTORE PUSH1 0x20 DUP3 ADD SWAP1 POP SWAP3 SWAP2 POP POP JUMP JUMPDEST PUSH32 0x4E6F2075706B656570206E656564656400000000000000000000000000000000 PUSH1 0x0 DUP3 ADD MSTORE POP JUMP JUMPDEST PUSH1 0x0 PUSH2 0x22B0 PUSH1 0x10 DUP4 PUSH2 0x2269 JUMP JUMPDEST SWAP2 POP PUSH2 0x22BB DUP3 PUSH2 0x227A JUMP JUMPDEST PUSH1 0x20 DUP3 ADD SWAP1 POP SWAP2 SWAP1 POP JUMP JUMPDEST PUSH1 0x0 PUSH1 0x20 DUP3 ADD SWAP1 POP DUP2 DUP2 SUB PUSH1 0x0 DUP4 ADD MSTORE PUSH2 0x22DF DUP2 PUSH2 0x22A3 JUMP JUMPDEST SWAP1 POP SWAP2 SWAP1 POP JUMP JUMPDEST PUSH32 0x4E487B7100000000000000000000000000000000000000000000000000000000 PUSH1 0x0 MSTORE PUSH1 0x21 PUSH1 0x4 MSTORE PUSH1 0x24 PUSH1 0x0 REVERT JUMPDEST PUSH1 0x0 DUP2 SWAP1 POP SWAP2 SWAP1 POP JUMP JUMPDEST PUSH2 0x2328 DUP2 PUSH2 0x2315 JUMP JUMPDEST DUP3 MSTORE POP POP JUMP JUMPDEST PUSH1 0x0 PUSH8 0xFFFFFFFFFFFFFFFF DUP3 AND SWAP1 POP SWAP2 SWAP1 POP JUMP JUMPDEST PUSH2 0x234B DUP2 PUSH2 0x232E JUMP JUMPDEST DUP3 MSTORE POP POP JUMP JUMPDEST PUSH1 0x0 PUSH2 0xFFFF DUP3 AND SWAP1 POP SWAP2 SWAP1 POP JUMP JUMPDEST PUSH2 0x2368 DUP2 PUSH2 0x2351 JUMP JUMPDEST DUP3 MSTORE POP POP JUMP JUMPDEST PUSH1 0x0 PUSH4 0xFFFFFFFF DUP3 AND SWAP1 POP SWAP2 SWAP1 POP JUMP JUMPDEST PUSH2 0x2387 DUP2 PUSH2 0x236E JUMP JUMPDEST DUP3 MSTORE POP POP JUMP JUMPDEST PUSH1 0x0 PUSH1 0xA0 DUP3 ADD SWAP1 POP PUSH2 0x23A2 PUSH1 0x0 DUP4 ADD DUP9 PUSH2 0x231F JUMP JUMPDEST PUSH2 0x23AF PUSH1 0x20 DUP4 ADD DUP8 PUSH2 0x2342 JUMP JUMPDEST PUSH2 0x23BC PUSH1 0x40 DUP4 ADD DUP7 PUSH2 0x235F JUMP JUMPDEST PUSH2 0x23C9 PUSH1 0x60 DUP4 ADD DUP6 PUSH2 0x237E JUMP JUMPDEST PUSH2 0x23D6 PUSH1 0x80 DUP4 ADD DUP5 PUSH2 0x237E JUMP JUMPDEST SWAP7 SWAP6 POP POP POP POP POP POP JUMP JUMPDEST PUSH1 0x0 DUP2 MLOAD SWAP1 POP PUSH2 0x23EF DUP2 PUSH2 0x1C03 JUMP JUMPDEST SWAP3 SWAP2 POP POP JUMP JUMPDEST PUSH1 0x0 PUSH1 0x20 DUP3 DUP5 SUB SLT ISZERO PUSH2 0x240B JUMPI PUSH2 0x240A PUSH2 0x1B3A JUMP JUMPDEST JUMPDEST PUSH1 0x0 PUSH2 0x2419 DUP5 DUP3 DUP6 ADD PUSH2 0x23E0 JUMP JUMPDEST SWAP2 POP POP SWAP3 SWAP2 POP POP JUMP JUMPDEST PUSH32 0x4E487B7100000000000000000000000000000000000000000000000000000000 PUSH1 0x0 MSTORE PUSH1 0x32 PUSH1 0x4 MSTORE PUSH1 0x24 PUSH1 0x0 REVERT JUMPDEST PUSH32 0x4E487B7100000000000000000000000000000000000000000000000000000000 PUSH1 0x0 MSTORE PUSH1 0x11 PUSH1 0x4 MSTORE PUSH1 0x24 PUSH1 0x0 REVERT JUMPDEST PUSH1 0x0 PUSH2 0x248B DUP3 PUSH2 0x1BCF JUMP JUMPDEST SWAP2 POP PUSH32 0xFFFFFFFFFFFFFFFFFFFFFFFFFFFFFFFFFFFFFFFFFFFFFFFFFFFFFFFFFFFFFFFF DUP3 SUB PUSH2 0x24BD JUMPI PUSH2 0x24BC PUSH2 0x2451 JUMP JUMPDEST JUMPDEST PUSH1 0x1 DUP3 ADD SWAP1 POP SWAP2 SWAP1 POP JUMP JUMPDEST PUSH1 0x0 PUSH2 0x24D3 DUP3 PUSH2 0x1BCF JUMP JUMPDEST SWAP2 POP PUSH2 0x24DE DUP4 PUSH2 0x1BCF JUMP JUMPDEST SWAP3 POP DUP3 DUP3 ADD SWAP1 POP DUP1 DUP3 GT ISZERO PUSH2 0x24F6 JUMPI PUSH2 0x24F5 PUSH2 0x2451 JUMP JUMPDEST JUMPDEST SWAP3 SWAP2 POP POP JUMP JUMPDEST PUSH1 0x0 PUSH1 0x40 DUP3 ADD SWAP1 POP PUSH2 0x2511 PUSH1 0x0 DUP4 ADD DUP6 PUSH2 0x1BD9 JUMP JUMPDEST PUSH2 0x251E PUSH1 0x20 DUP4 ADD DUP5 PUSH2 0x1BD9 JUMP JUMPDEST SWAP4 SWAP3 POP POP POP JUMP JUMPDEST PUSH32 0x4E487B7100000000000000000000000000000000000000000000000000000000 PUSH1 0x0 MSTORE PUSH1 0x12 PUSH1 0x4 MSTORE PUSH1 0x24 PUSH1 0x0 REVERT JUMPDEST PUSH1 0x0 PUSH2 0x255F DUP3 PUSH2 0x1BCF JUMP JUMPDEST SWAP2 POP PUSH2 0x256A DUP4 PUSH2 0x1BCF JUMP JUMPDEST SWAP3 POP DUP3 PUSH2 0x257A JUMPI PUSH2 0x2579 PUSH2 0x2525 JUMP JUMPDEST JUMPDEST DUP3 DUP3 DIV SWAP1 POP SWAP3 SWAP2 POP POP JUMP JUMPDEST PUSH1 0x0 PUSH1 0x40 DUP3 ADD SWAP1 POP PUSH2 0x259A PUSH1 0x0 DUP4 ADD DUP6 PUSH2 0x21AF JUMP JUMPDEST PUSH2 0x25A7 PUSH1 0x20 DUP4 ADD DUP5 PUSH2 0x1BD9 JUMP JUMPDEST SWAP4 SWAP3 POP POP POP JUMP JUMPDEST PUSH1 0x0 PUSH2 0x25B9 DUP3 PUSH2 0x1BCF JUMP JUMPDEST SWAP2 POP PUSH2 0x25C4 DUP4 PUSH2 0x1BCF JUMP JUMPDEST SWAP3 POP DUP3 DUP3 MUL PUSH2 0x25D2 DUP2 PUSH2 0x1BCF JUMP JUMPDEST SWAP2 POP DUP3 DUP3 DIV DUP5 EQ DUP4 ISZERO OR PUSH2 0x25E9 JUMPI PUSH2 0x25E8 PUSH2 0x2451 JUMP JUMPDEST JUMPDEST POP SWAP3 SWAP2 POP POP JUMP JUMPDEST PUSH1 0x0 DUP2 SWAP1 POP SWAP3 SWAP2 POP POP JUMP JUMPDEST POP JUMP JUMPDEST PUSH1 0x0 PUSH2 0x260B PUSH1 0x0 DUP4 PUSH2 0x25F0 JUMP JUMPDEST SWAP2 POP PUSH2 0x2616 DUP3 PUSH2 0x25FB JUMP JUMPDEST PUSH1 0x0 DUP3 ADD SWAP1 POP SWAP2 SWAP1 POP JUMP JUMPDEST PUSH1 0x0 PUSH2 0x262C DUP3 PUSH2 0x25FE JUMP JUMPDEST SWAP2 POP DUP2 SWAP1 POP SWAP2 SWAP1 POP JUMP JUMPDEST PUSH32 0x4F776E61626C653A206E6577206F776E657220697320746865207A65726F2061 PUSH1 0x0 DUP3 ADD MSTORE PUSH32 0x6464726573730000000000000000000000000000000000000000000000000000 PUSH1 0x20 DUP3 ADD MSTORE POP JUMP JUMPDEST PUSH1 0x0 PUSH2 0x2692 PUSH1 0x26 DUP4 PUSH2 0x2269 JUMP JUMPDEST SWAP2 POP PUSH2 0x269D DUP3 PUSH2 0x2636 JUMP JUMPDEST PUSH1 0x40 DUP3 ADD SWAP1 POP SWAP2 SWAP1 POP JUMP JUMPDEST PUSH1 0x0 PUSH1 0x20 DUP3 ADD SWAP1 POP DUP2 DUP2 SUB PUSH1 0x0 DUP4 ADD MSTORE PUSH2 0x26C1 DUP2 PUSH2 0x2685 JUMP JUMPDEST SWAP1 POP SWAP2 SWAP1 POP JUMP JUMPDEST PUSH1 0x0 PUSH2 0x26D3 DUP3 PUSH2 0x1BCF JUMP JUMPDEST SWAP2 POP PUSH2 0x26DE DUP4 PUSH2 0x1BCF JUMP JUMPDEST SWAP3 POP DUP3 PUSH2 0x26EE JUMPI PUSH2 0x26ED PUSH2 0x2525 JUMP JUMPDEST JUMPDEST DUP3 DUP3 MOD SWAP1 POP SWAP3 SWAP2 POP POP JUMP JUMPDEST PUSH32 0x4F776E61626C653A2063616C6C6572206973206E6F7420746865206F776E6572 PUSH1 0x0 DUP3 ADD MSTORE POP JUMP JUMPDEST PUSH1 0x0 PUSH2 0x272F PUSH1 0x20 DUP4 PUSH2 0x2269 JUMP JUMPDEST SWAP2 POP PUSH2 0x273A DUP3 PUSH2 0x26F9 JUMP JUMPDEST PUSH1 0x20 DUP3 ADD SWAP1 POP SWAP2 SWAP1 POP JUMP JUMPDEST PUSH1 0x0 PUSH1 0x20 DUP3 ADD SWAP1 POP DUP2 DUP2 SUB PUSH1 0x0 DUP4 ADD MSTORE PUSH2 0x275E DUP2 PUSH2 0x2722 JUMP JUMPDEST SWAP1 POP SWAP2 SWAP1 POP JUMP INVALID LOG2 PUSH5 0x6970667358 0x22 SLT KECCAK256 SWAP10 0xE1 MLOAD 0xE4 PUSH11 0x35891FDDC86BA5B0D923EC ORIGIN SELFDESTRUCT EXTCODESIZE 0x25 SELFBALANCE DUP8 SWAP15 DUP2 0xAC 0x25 STATICCALL XOR SWAP8 0x25 0xD9 0xB4 PUSH5 0x736F6C6343 STOP ADDMOD GT STOP CALLER "
    },
    "gasEstimates": {
      "creation": {
        "codeDepositCost": "2027800",
        "executionCost": "infinite",
        "totalCost": "infinite"
      },
      "external": {
        "checkUpkeep(bytes)": "infinite",
        "chooseWinner()": "infinite",
        "closeLottery()": "infinite",
        "enterLottery()": "infinite",
        "getBalance()": "385",
        "getLotteryState()": "infinite",
        "getUserTickets(address)": "2865",
        "owner()": "2589",
        "performUpkeep(bytes)": "infinite",
        "rawFulfillRandomWords(uint256,uint256[])": "infinite",
        "renounceOwnership()": "30421",
        "requestRandomNumber()": "infinite",
        "s_ticketFee()": "2517",
        "setAdminAddress(address)": "27076",
        "startLotery(uint256,uint256,uint256,uint256)": "infinite",
        "totalTickets()": "2495",
        "transferOwnership(address)": "30854"
      },
      "internal": {
        "fulfillRandomWords(uint256,uint256[] memory)": "infinite",
        "resetState()": "infinite"
      }
    },
    "methodIdentifiers": {
      "checkUpkeep(bytes)": "6e04ff0d",
      "chooseWinner()": "cd38aa87",
      "closeLottery()": "6fd09816",
      "enterLottery()": "c1af5785",
      "getBalance()": "12065fe0",
      "getLotteryState()": "6b68c03c",
      "getUserTickets(address)": "0484a22f",
      "owner()": "8da5cb5b",
      "performUpkeep(bytes)": "4585e33b",
      "rawFulfillRandomWords(uint256,uint256[])": "1fe543e3",
      "renounceOwnership()": "715018a6",
      "requestRandomNumber()": "8678a7b2",
      "s_ticketFee()": "dfd39a82",
      "setAdminAddress(address)": "2c1e816d",
      "startLotery(uint256,uint256,uint256,uint256)": "d537b482",
      "totalTickets()": "dd11247e",
      "transferOwnership(address)": "f2fde38b"
    }
  },
  "abi": [
    {
      "inputs": [
        {
          "internalType": "address",
          "name": "vrfCoordinatorV2",
          "type": "address"
        },
        {
          "internalType": "address",
          "name": "adminAddress",
          "type": "address"
        },
        {
          "internalType": "uint256",
          "name": "entranceFee",
          "type": "uint256"
        },
        {
          "internalType": "bytes32",
          "name": "key_hash",
          "type": "bytes32"
        },
        {
          "internalType": "uint64",
          "name": "subscriptionId",
          "type": "uint64"
        },
        {
          "internalType": "uint32",
          "name": "callbackGasLimit",
          "type": "uint32"
        }
      ],
      "stateMutability": "nonpayable",
      "type": "constructor"
    },
    {
      "inputs": [],
      "name": "Lottery__loteryAlreadyOpened",
      "type": "error"
    },
    {
      "inputs": [],
      "name": "Lottery__notEnoughETH",
      "type": "error"
    },
    {
      "inputs": [],
      "name": "Lottery__notOpened",
      "type": "error"
    },
    {
      "inputs": [
        {
          "internalType": "address",
          "name": "have",
          "type": "address"
        },
        {
          "internalType": "address",
          "name": "want",
          "type": "address"
        }
      ],
      "name": "OnlyCoordinatorCanFulfill",
      "type": "error"
    },
    {
      "inputs": [],
      "name": "OnlySimulatedBackend",
      "type": "error"
    },
    {
      "inputs": [],
      "name": "lottery__FailedTranfer",
      "type": "error"
    },
    {
      "anonymous": false,
      "inputs": [],
      "name": "ChoosingWinner",
      "type": "event"
    },
    {
      "anonymous": false,
      "inputs": [],
      "name": "LotteryClosed",
      "type": "event"
    },
    {
      "anonymous": false,
      "inputs": [
        {
          "indexed": false,
          "internalType": "address",
          "name": "player",
          "type": "address"
        },
        {
          "indexed": false,
          "internalType": "uint256",
          "name": "numberOfTickets",
          "type": "uint256"
        }
      ],
      "name": "LotteryEntered",
      "type": "event"
    },
    {
      "anonymous": false,
      "inputs": [],
      "name": "LotteryStarted",
      "type": "event"
    },
    {
      "anonymous": false,
      "inputs": [
        {
          "indexed": true,
          "internalType": "address",
          "name": "previousOwner",
          "type": "address"
        },
        {
          "indexed": true,
          "internalType": "address",
          "name": "newOwner",
          "type": "address"
        }
      ],
      "name": "OwnershipTransferred",
      "type": "event"
    },
    {
      "anonymous": false,
      "inputs": [
        {
          "indexed": false,
          "internalType": "uint256",
          "name": "blockTimestamp",
          "type": "uint256"
        },
        {
          "indexed": false,
          "internalType": "uint256",
          "name": "deadline",
          "type": "uint256"
        }
      ],
      "name": "TestUpkeep",
      "type": "event"
    },
    {
      "anonymous": false,
      "inputs": [
        {
          "indexed": true,
          "internalType": "address",
          "name": "winner",
          "type": "address"
        },
        {
          "indexed": false,
          "internalType": "uint256",
          "name": "amount",
          "type": "uint256"
        }
      ],
      "name": "WinnerChosen",
      "type": "event"
    },
    {
      "anonymous": false,
      "inputs": [
        {
          "indexed": true,
          "internalType": "uint256",
          "name": "requestId",
          "type": "uint256"
        }
      ],
      "name": "WinnerRequestSent",
      "type": "event"
    },
    {
      "inputs": [
        {
          "internalType": "bytes",
          "name": "",
          "type": "bytes"
        }
      ],
      "name": "checkUpkeep",
      "outputs": [
        {
          "internalType": "bool",
          "name": "upkeepNeeded",
          "type": "bool"
        },
        {
          "internalType": "bytes",
          "name": "",
          "type": "bytes"
        }
      ],
      "stateMutability": "nonpayable",
      "type": "function"
    },
    {
      "inputs": [],
      "name": "chooseWinner",
      "outputs": [],
      "stateMutability": "nonpayable",
      "type": "function"
    },
    {
      "inputs": [],
      "name": "closeLottery",
      "outputs": [],
      "stateMutability": "nonpayable",
      "type": "function"
    },
    {
      "inputs": [],
      "name": "enterLottery",
      "outputs": [],
      "stateMutability": "payable",
      "type": "function"
    },
    {
      "inputs": [],
      "name": "getBalance",
      "outputs": [
        {
          "internalType": "uint256",
          "name": "",
          "type": "uint256"
        }
      ],
      "stateMutability": "view",
      "type": "function"
    },
    {
      "inputs": [],
      "name": "getLotteryState",
      "outputs": [
        {
          "components": [
            {
              "internalType": "uint256",
              "name": "ticketFee",
              "type": "uint256"
            },
            {
              "internalType": "uint256",
              "name": "ticketSupply",
              "type": "uint256"
            },
            {
              "internalType": "uint256",
              "name": "maxTicketPerPlayer",
              "type": "uint256"
            },
            {
              "components": [
                {
                  "internalType": "address",
                  "name": "playerAddress",
                  "type": "address"
                },
                {
                  "internalType": "uint256",
                  "name": "numberOfTickets",
                  "type": "uint256"
                }
              ],
              "internalType": "struct Lottery.Player[]",
              "name": "players",
              "type": "tuple[]"
            },
            {
              "internalType": "uint256",
              "name": "deadline",
              "type": "uint256"
            },
            {
              "internalType": "string",
              "name": "lotteryState",
              "type": "string"
            }
          ],
          "internalType": "struct Lottery.LotteryData",
          "name": "",
          "type": "tuple"
        }
      ],
      "stateMutability": "view",
      "type": "function"
    },
    {
      "inputs": [
        {
          "internalType": "address",
          "name": "userAddress",
          "type": "address"
        }
      ],
      "name": "getUserTickets",
      "outputs": [
        {
          "internalType": "uint256",
          "name": "",
          "type": "uint256"
        }
      ],
      "stateMutability": "view",
      "type": "function"
    },
    {
      "inputs": [],
      "name": "owner",
      "outputs": [
        {
          "internalType": "address",
          "name": "",
          "type": "address"
        }
      ],
      "stateMutability": "view",
      "type": "function"
    },
    {
      "inputs": [
        {
          "internalType": "bytes",
          "name": "",
          "type": "bytes"
        }
      ],
      "name": "performUpkeep",
      "outputs": [],
      "stateMutability": "nonpayable",
      "type": "function"
    },
    {
      "inputs": [
        {
          "internalType": "uint256",
          "name": "requestId",
          "type": "uint256"
        },
        {
          "internalType": "uint256[]",
          "name": "randomWords",
          "type": "uint256[]"
        }
      ],
      "name": "rawFulfillRandomWords",
      "outputs": [],
      "stateMutability": "nonpayable",
      "type": "function"
    },
    {
      "inputs": [],
      "name": "renounceOwnership",
      "outputs": [],
      "stateMutability": "nonpayable",
      "type": "function"
    },
    {
      "inputs": [],
      "name": "requestRandomNumber",
      "outputs": [],
      "stateMutability": "nonpayable",
      "type": "function"
    },
    {
      "inputs": [],
      "name": "s_ticketFee",
      "outputs": [
        {
          "internalType": "uint256",
          "name": "",
          "type": "uint256"
        }
      ],
      "stateMutability": "view",
      "type": "function"
    },
    {
      "inputs": [
        {
          "internalType": "address",
          "name": "adminAddress",
          "type": "address"
        }
      ],
      "name": "setAdminAddress",
      "outputs": [],
      "stateMutability": "nonpayable",
      "type": "function"
    },
    {
      "inputs": [
        {
          "internalType": "uint256",
          "name": "ticketFee",
          "type": "uint256"
        },
        {
          "internalType": "uint256",
          "name": "ticketSuply",
          "type": "uint256"
        },
        {
          "internalType": "uint256",
          "name": "ticketsPerUser",
          "type": "uint256"
        },
        {
          "internalType": "uint256",
          "name": "durationInHours",
          "type": "uint256"
        }
      ],
      "name": "startLotery",
      "outputs": [],
      "stateMutability": "nonpayable",
      "type": "function"
    },
    {
      "inputs": [],
      "name": "totalTickets",
      "outputs": [
        {
          "internalType": "uint256",
          "name": "",
          "type": "uint256"
        }
      ],
      "stateMutability": "view",
      "type": "function"
    },
    {
      "inputs": [
        {
          "internalType": "address",
          "name": "newOwner",
          "type": "address"
        }
      ],
      "name": "transferOwnership",
      "outputs": [],
      "stateMutability": "nonpayable",
      "type": "function"
    }
  ]
}